:100000000C9443000C9460000C9460000C9460000D
:100010000C9460000C9460000C9460000C9411022D
:100020000C9460000C9460000C9460000C94E0014F
:100030000C9460000C9460000C94AF010C94600070
:100040000C9460000C9460000C9460000C946000B0
:100050000C9460000C9460000C9460000C946000A0
:100060000C9460000C94600005A84CCDB2D44EB93D
:100070003836A9020C50B9918688083CA6AAAA2A4B
:10008000BE000000803F11241FBECFEFD8E0DEBFCE
:10009000CDBF12E0A0E0B1E0E0E9F4E202C00590DB
:1000A0000D92AE36B107D9F722E0AEE6B2E001C05C
:1000B0001D92A637B207E1F70E946C000C9446121D
:1000C0000C940000CF93DF93CDB7DEB70E944B0EA8
:1000D0000000DF91CF910895AF92BF92CF92DF924F
:1000E000EF92FF920F931F93CF93DF93CDB7DEB7BD
:1000F00064970FB6F894DEBF0FBECDBF0E946200BA
:1001000060E180E00E94EC118BE00E94E0118CE045
:100110000E94E01181E10E94E0110E94EF11A22EE5
:10012000B32EC42ED52EE62EF72E082F192FA98216
:10013000BA82CB82DC82ED82FE820F83188729810E
:100140003A814B815C816D817E818F8198850E948F
:10015000A70FDC01CB0120E030E04AE754E4BC010A
:10016000CD010E94CA0EDC01CB012BED3FE049E43A
:1001700050E4BC01CD010E942A11DC01CB0120E03A
:1001800030E040EA50E4BC01CD010E94CA0EDC011F
:10019000CB01BC01CD010E94C50EDC01CB0120E0EA
:1001A00030E040E85FE3BC01CD010E94540EDC0169
:1001B000CB0120E030E040E050E4BC01CD010E94E2
:1001C000CA0EDC01CB0189879A87AB87BC8729815E
:1001D0003A814B815C816D817E818F8198850E94FF
:1001E000A70FDC01CB0125E535E540ED54E4BC016A
:1001F000CD010E94540EDC01CB0120E030E04AE743
:1002000054E4BC01CD010E94CA0EDC01CB012BEDF0
:100210003FE049E450E4BC01CD010E942A11DC0119
:10022000CB0120E030E040EA50E4BC01CD010E9467
:10023000CA0EDC01CB01BC01CD010E94C50EDC0160
:10024000CB0120E030E040E85FE3BC01CD010E943B
:10025000540EDC01CB0120E030E040E050E4BC0172
:10026000CD010E94CA0EDC01CB018D879E87AF872E
:10027000B88B29813A814B815C816D817E818F8130
:1002800098850E94A70FDC01CB0125E535E540E507
:1002900055E4BC01CD010E94540EDC01CB0120E0ED
:1002A00030E04AE754E4BC01CD010E94CA0EDC01F3
:1002B000CB012BED3FE049E450E4BC01CD010E94AD
:1002C0002A11DC01CB0120E030E040EA50E4BC011F
:1002D000CD010E94CA0EDC01CB01BC01CD010E9400
:1002E000C50EDC01CB0120E030E040E85FE3BC015B
:1002F000CD010E94540EDC01CB0120E030E040E053
:1003000050E4BC01CD010E94CA0EDC01CB01898BF7
:100310009A8BAB8BBC8B89859A85AB85BC85AC01F0
:10032000BD0181E10E94E6118D859E85AF85B8896A
:10033000AC01BD018CE00E94E61189899A89AB89E4
:10034000BC89AC01BD018BE00E94E611E6CECF93E3
:10035000DF93CDB7DEB70000DF91CF9108951F92F4
:100360000F9200905F000F9211242F933F934F93B1
:100370005F936F937F938F939F93AF93BF93EF930D
:10038000FF93CF93DF93CDB7DEB78091400290917A
:100390004102FC0109950000DF91CF91FF91EF919F
:1003A000BF91AF919F918F917F916F915F914F918D
:1003B0003F912F910F9000925F000F901F90189522
:1003C0001F920F9200905F000F9211242F933F9382
:1003D0004F935F936F937F938F939F93AF93BF934D
:1003E000EF93FF93CF93DF93CDB7DEB78091620297
:1003F00090916302FC0109950000DF91CF91FF917C
:10040000EF91BF91AF919F918F917F916F915F918C
:100410004F913F912F910F9000925F000F901F908E
:1004200018951F920F9200905F000F9211242F9346
:100430003F934F935F936F937F938F939F93AF936C
:10044000BF93EF93FF93CF93DF93CDB7DEB7809148
:100450004E0290914F02FC0109950000DF91CF916F
:10046000FF91EF91BF91AF919F918F917F916F918C
:100470005F914F913F912F910F9000925F000F90ED
:100480001F901895CF93DF93CDB7DEB72F970FB698
:10049000F894DEBF0FBECDBF8E876F878E8518168E
:1004A0000CF046C08E858D310CF042C08E85082E32
:1004B000000C990B9C01215031094BE0429FC00177
:1004C000439F900D112480509F4F2BE0FC01DE01D3
:1004D000139601900D922A95E1F781E09F85913066
:1004E00009F080E0898388859985FC0180818A8371
:1004F000888599852A85422F50E021E030E002C0AE
:10050000220F331F4A95E2F7322F30952A81632F4D
:1005100062232981222F30E04A85442F50E002C017
:10052000220F331F4A95E2F7262BFC01208301C0DE
:1005300000002F960FB6F894DEBF0FBECDBFDF913F
:10054000CF910895AF92BF92CF92DF92EF92FF9238
:100550000F931F93CF93DF93CDB7DEB7A0906E02BA
:10056000B0906F02C0907002D0907102E090720261
:10057000F090730200917402109175022A2D3B2DA8
:100580004C2D5D2D6E2D7F2D802F912FA1E00E948F
:100590003A12A22EB32EC42ED52EE62EF72E082FF9
:1005A000192FA0926E02B0926F02C0927002D09288
:1005B0007102E0927202F09273020093740210933F
:1005C00075020000DF91CF911F910F91FF90EF9086
:1005D000DF90CF90BF90AF900895EF92FF920F936E
:1005E0001F93CF93DF9300D0CDB7DEB789836A83A3
:1005F0008A81282F30E08981882F90E0B9010E94FC
:10060000F9098A81682F70E08981882F90E00F2E88
:10061000F8EEEF2EF02D0F2EF3E0FF2EF02D00E080
:1006200010E020E030E040E050E00E94310A8A8192
:10063000282F30E08981882F90E042EA52E0B9010A
:100640000E94900A00000F900F90DF91CF911F91B0
:100650000F91FF90EF900895AF92BF92CF92DF92EB
:10066000EF92FF920F931F93CF93DF93CDB7DEB737
:1006700020916E0230916F02409170025091710290
:100680006091720270917302809174029091750270
:10069000A22EB32EC42ED52EE62EF72E082F192FFC
:1006A0002A2D3B2D4C2D5D2D6E2D7F2D802F912FD2
:1006B000DF91CF911F910F91FF90EF90DF90CF903E
:1006C000BF90AF9008956F927F928F929F92AF925A
:1006D000BF92CF92DF92EF92FF920F931F93CF932F
:1006E000DF93CDB7DEB7C755D1090FB6F894DEBF9B
:1006F0000FBECDBFFE01E15BFF4F8083CE01805B6B
:100700009F4FFC010083FC011183FC012283FC014B
:100710003383FC014483FC015583FC016683FC01A7
:100720007783CE01815B9F4FFC018081823008F08E
:10073000FCC2CE01815B9F4FFC018081882F90E03D
:100740009C01C901880F991F9C01C901880F991F3D
:10075000880F991F880F991F821B930B8C5C9D4FEC
:1007600021E0FC01208328E2CE014396FC01322FD8
:1007700011923A95E9F724E1CE01CB96FC01322F94
:1007800011923A95E9F78FEF9FEFAFE7BFE78BAF95
:100790009CAFADAFBEAF198228C18981882E912C44
:1007A0008981882F90E0880F991F8C599D4FFC01FB
:1007B00080819181CC01A0E0B0E0BC01CD010E941C
:1007C000AD0F6B017C01FE01E05BFF4F20813181A9
:1007D0004281538164817581868197810E94EA0FED
:1007E000DC01CB019C01AD01C701B6010E942A11B9
:1007F000DC01CB019C01AD0160E074E284E79BE485
:100800000E94CA0EDC01CB0120E030E040E051E460
:10081000BC01CD010E942A11DC01CB0120E030E0B7
:1008200040E85FE3BC01CD010E94530EDC01CB0127
:10083000BC01CD010E94410FA22EB32EC42ED52E95
:10084000E62EF72E082F192FC401880F991F880F45
:10085000991F880F991F9E012F5F3F4F820F931F93
:100860004296FC01A082FC01B182FC01C282FC0123
:10087000D382FC01E482FC01F582FC010683FC01C9
:1008800017838981882F90E0880F991F8C599D4F7D
:10089000FC0180819181CC01A0E0B0E0BC01CD01E0
:1008A0000E94AD0F3B014C018981882F90E0880F99
:1008B000991F880F991F880F991F9E012F5F3F4F27
:1008C000820F931F4296FC01A080FC01B180FC01C5
:1008D000C280FC01D380FC01E480FC01F580FC01B6
:1008E0000681FC0117812A2D3B2D4C2D5D2D6E2D8F
:1008F0007F2D802F912F0E94EA0FDC01CB0120E099
:1009000030E040E85FE3BC01CD010E94540EDC0101
:10091000CB019C01AD01C401B3010E942A11DC018D
:10092000CB019C01AD0160E074E284E79BE40E948E
:10093000CA0EDC01CB0120E030E040E051E4BC0114
:10094000CD010E942A11DC01CB018D879E87AF87E4
:10095000B88BFE01E05BFF4F2081318142815381E2
:1009600064817581868197810E94EA0FDC01CB0149
:100970009C01AD016D857E858F8598890E94530EFF
:10098000DC01CB018A839B83AC83BD8320E030E014
:10099000A9016A817B818C819D810E94C00E882380
:1009A0004CF48A819B81AC81BD81B0588A839B8342
:1009B000AC83BD838981882F90E0880F991F880FB1
:1009C000991F9E012F5F3F4F820F931F9C01265C52
:1009D0003F4F8A819B81AC81BD81F90180839183E6
:1009E000A283B38389818F5F89838981853008F4ED
:1009F000D4CE84E08E838E81882F90E0880F991F5B
:100A0000880F991F9E012F5F3F4F820F931FCA9639
:100A1000FC0180819181A281B3818F839887A9870E
:100A2000BA871B8668C08B85882F90E0880F991F36
:100A3000880F991F880F991F9E012F5F3F4F820FCC
:100A4000931F4296FC01A080FC01B180FC01C28092
:100A5000FC01D380FC01E480FC01F580FC010681EF
:100A6000FC0117812A2D3B2D4C2D5D2D6E2D7F2DE8
:100A7000802F912F2E3F31054105510561057105EC
:100A80008105910509F0A0F58B85882F90E0880FEE
:100A9000991F880F991F9E012F5F3F4F820F931F51
:100AA000CA96FC0180819181A281B3812F81388512
:100AB00049855A85BC01CD010E94C00E1816C4F0AC
:100AC0008B85882F90E0880F991F880F991F9E01B2
:100AD0002F5F3F4F820F931FCA96FC018081918147
:100AE000A281B3818F839887A987BA878B858E83EC
:100AF0008B858F5F8B878B85853008F494CFCE01F3
:100B0000815B9F4FFC018081882F90E09C01C9018F
:100B1000880F991F9C01C901880F991F880F991F81
:100B2000880F991F821B930B885C9D4FFC014081AD
:100B30005181CE01815B9F4FFC018081882F90E025
:100B40009C01C901880F991F9C01C901880F991F39
:100B5000880F991F880F991F821B930B885C9D4FEC
:100B6000FC0180819181FC018081877FFA01808373
:100B7000CE01815B9F4FFC018081882F90E09C011A
:100B8000C901880F991F9C01C901880F991F880FFF
:100B9000991F880F991F821B930B8A5C9D4FFC0144
:100BA00080819181FC018081898BCE01815B9F4F87
:100BB000FC018081882F90E09C01C901880F991F5A
:100BC0009C01C901880F991F880F991F880F991FD1
:100BD000821B930B8A5C9D4FFC0180819181298946
:100BE00022602E7FFC012083CE01815B9F4FFC01A0
:100BF0008081882F90E09C01C901880F991F9C017A
:100C0000C901880F991F880F991F880F991F821B90
:100C1000930B845C9D4FFC01A081B1818E81882F54
:100C200090E0880F991F880F991F880F991F9E01C8
:100C30002F5F3F4F820F931FFC01729620813181FD
:100C4000428153816481758186819781822F8C9343
:100C50001C868E81882F90E0880F991F8C599D4F9C
:100C6000FC018081918180349105B9F08134910536
:100C700030F48130910559F0089761F017C0811563
:100C8000F1E09F0769F08115944069F00FC081E0A1
:100C90008C870CC082E08C8709C083E08C8706C0FB
:100CA00084E08C8703C085E08C870000CE01815BE7
:100CB0009F4FFC018081882F90E09C01C901880F23
:100CC000991F9C01C901880F991F880F991F880FD0
:100CD000991F821B930B885C9D4FFC018081918141
:100CE000FC0180818A8BCE01815B9F4FFC0180815A
:100CF000882F90E09C01C901880F991F9C01C901B0
:100D0000880F991F880F991F880F991F821B930BBB
:100D1000885C9D4FFC01808191812A89322F387F28
:100D20002C85232BFC01208301C00000C95ADF4F12
:100D30000FB6F894DEBF0FBECDBFDF91CF911F91EC
:100D40000F91FF90EF90DF90CF90BF90AF909F906A
:100D50008F907F906F9008956F927F928F929F9265
:100D6000AF92BF92CF92DF92EF92FF920F931F93B9
:100D7000CF93DF93CDB7DEB7C655D1090FB6F89440
:100D8000DEBF0FBECDBFFE01E25BFF4F8083CE0111
:100D9000815B9F4FDC010C93FC011183DC011296F7
:100DA0002C93FC013383DC0114964C93FC01558396
:100DB000DC0116966C93FC017783CE01825B9F4F1A
:100DC000DC018C91823008F0FDC2CE01825B9F4F26
:100DD000FC018081282F30E044E1429FC001439F05
:100DE000900D1124805B9D4F21E0DC012C9328E2C3
:100DF000CE014296FC01322F11923A95E9F724E197
:100E0000CE01CA96DC01E22F1D92EA95E9F78FEF39
:100E10009FEFAFE7BFE78AAF9BAFACAFBDAF198223
:100E20001BC18981882E912C8981882F90E0880FA1
:100E3000991F8C599D4FDC018D919C91CC01A0E0B4
:100E4000B0E0BC01CD010E94AD0F6B017C01FE0141
:100E5000E15BFF4F20813181428153816481758143
:100E6000868197810E94EA0FDC01CB019C01AD01D4
:100E7000C701B6010E942A11DC01CB019C01AD0122
:100E800060E074E284E79BE40E94CA0EDC01CB01BF
:100E900020E030E040E85FE3BC01CD010E94530E4A
:100EA000DC01CB01BC01CD010E94410FA22EB32E6B
:100EB000C42ED52EE62EF72E082F192FC401880F29
:100EC000991F880F991F880F991F9E012F5F3F4F11
:100ED000820F931F4196FC01A082DC011196BC9207
:100EE000FC01C282DC011396DC92FC01E482DC018D
:100EF0001596FC92FC010683DC0117961C938981F0
:100F0000882F90E0880F991F8C599D4FFC0180819C
:100F10009181CC01A0E0B0E0BC01CD010E94AD0FF9
:100F20003B014C018981882F90E0880F991F880F21
:100F3000991F880F991F9E012F5F3F4F820F931FAC
:100F40004196DC01AC90FC01B180DC011296CC90A2
:100F5000FC01D380DC011496EC90FC01F580DC01EF
:100F600016960C91FC0117812A2D3B2D4C2D5D2DE1
:100F70006E2D7F2D802F912F0E94EA0FDC01CB0177
:100F800020E030E040E85FE3BC01CD010E94540E58
:100F9000DC01CB019C01AD01C401B3010E942A1107
:100FA000DC01CB019C01AD0160E074E284E79BE4CD
:100FB0000E94CA0EDC01CB018D879E87AF87B88B5C
:100FC000FE01E15BFF4F20813181428153816481C9
:100FD0007581868197810E94EA0FDC01CB019C011B
:100FE000AD016D857E858F8598890E94530EDC0149
:100FF000CB018A839B83AC83BD8320E030E0A901D1
:101000006A817B818C819D810E94C00E88234CF473
:101010008A819B81AC81BD81B0588A839B83AC83DC
:10102000BD838981882F90E0880F991F880F991FB1
:101030009E012F5F3F4F820F931F9C01275C3F4F04
:101040008A819B81AC81BD81F90180839183A283D8
:10105000B38389818F5F89838981853008F4E1CEEC
:1010600084E08E838E81882F90E0880F991F880FEF
:10107000991F9E012F5F3F4F820F931FC996FC015E
:1010800080819181A281B3818F839887A987BA8754
:101090001B866BC08B85882F90E0880F991F880F67
:1010A000991F880F991F9E012F5F3F4F820F931F3B
:1010B0004196DC01AC90FC01B180DC011296CC9031
:1010C000FC01D380DC011496EC90FC01F580DC017E
:1010D00016960C91FC0117812A2D3B2D4C2D5D2D70
:1010E0006E2D7F2D802F912F2E3F3F4F41055105B3
:1010F000610571058105910509F0A0F58B85882FA3
:1011000090E0880F991F880F991F9E012F5F3F4F16
:10111000820F931FC996FC0180819181A281B381C6
:101120002F81388549855A85BC01CD010E94C00EAA
:101130001816C4F08B85882F90E0880F991F880FB0
:10114000991F9E012F5F3F4F820F931FC996FC018D
:1011500080819181A281B3818F839887A987BA8783
:101160008B858E838B858F5F8B878B85853008F48D
:1011700091CFCE01825B9F4FDC018C91282F30E014
:1011800044E1429FC001439F900D11248C5A9D4F12
:10119000FC01808191819E01225B3F4FD9012C91FE
:1011A000422F50E064E1649F9001659F300D11244F
:1011B0002C5A3D4FF90120813181D9012C91277E94
:1011C0002860FC012083CE01825B9F4FDC018C9163
:1011D000282F30E044E1429FC001439F900D11242D
:1011E0008E5A9D4FFC01808191819E01225B3F4F71
:1011F000D9012C91422F50E064E1649F9001659FDA
:10120000300D11242E5A3D4FF90120813181D90131
:101210002C912C7FFC012083CE01825B9F4FDC014F
:101220008C91282F30E044E1429FC001439F900DF4
:101230001124845A9D4FDC01ED91FC918E81882F01
:1012400090E0880F991F880F991F880F991F9E01A2
:101250002F5F3F4F820F931F4196DC01AC90DC0162
:101260001196BC90DC011296CC90DC011396DC90B8
:10127000DC011496EC90DC011596FC90DC011696CE
:101280000C91DC0117961C912A2D3B2D4C2D5D2DC8
:101290006E2D7F2D802F912F08E00E941E12A22E0E
:1012A000B32EC42ED52EE62EF72E082F192F8A2DF9
:1012B0008083CE01825B9F4FFC018081282F30E02C
:1012C00044E1429FC001439F900D1124865A9D4FD7
:1012D000FC01A081B1818E81882F90E0880F991F39
:1012E000880F991F880F991F9E012F5F3F4F820F14
:1012F000931FFC0171962081318142815381648169
:10130000758186819781822F8C931C868E81882F90
:1013100090E0880F991F8C599D4FDC018D919C9115
:1013200080349105B9F08134910530F48130910514
:1013300059F0089761F017C08115B1E09B0769F07B
:101340008115944069F00FC081E08C870CC082E069
:101350008C8709C083E08C8706C084E08C8703C03B
:1013600085E08C870000CE01825B9F4FDC018C9171
:10137000282F30E044E1429FC001439F900D11248B
:101380008C5A9D4FFC0180819181DC018C91898B6D
:10139000CE01825B9F4FFC018081282F30E044E129
:1013A000429FC001439F900D11248C5A9D4FDC0138
:1013B0008D919C912989322F387F2C85232BFC011C
:1013C000208301C00000CA5ADF4F0FB6F894DEBF79
:1013D0000FBECDBFDF91CF911F910F91FF90EF9086
:1013E000DF90CF90BF90AF909F908F907F906F9045
:1013F0000895CF93DF9300D0CDB7DEB789836A839A
:101400008A818930B8F48981882F90E09C01C901D4
:10141000880F991F9C01C901880F991F880F991F78
:10142000880F991F821B930B8C5C9D4F21E0FC0160
:10143000208311C08A81813170F48981282F30E0A6
:1014400044E1429FC001439F900D1124805B9D4F5A
:1014500021E0FC01208300000F900F90DF91CF91DD
:1014600008958F929F92AF92BF92CF92DF92EF92A8
:10147000FF920F931F93CF93DF93CDB7DEB72A97D9
:101480000FB6F894DEBF0FBECDBF89836A83EB82AF
:10149000FC820D831E832F83388749875A878A8170
:1014A0008930A0F48B809C80AD80BE80CF80D884B2
:1014B000E984FA84082D192D2A2D3B2D4C2D5D2D04
:1014C0006E2D7F2D89810E94630316C08A81813130
:1014D00098F48B809C80AD80BE80CF80D884E984D6
:1014E000FA84082D192D2A2D3B2D4C2D5D2D6E2DA6
:1014F0007F2D89810E94AC0600002A960FB6F894D1
:10150000DEBF0FBECDBFDF91CF911F910F91FF9036
:10151000EF90DF90CF90BF90AF909F908F90089505
:10152000CF93DF9300D000D0CDB7DEB789836A8335
:101530005C834B838A81893008F04BC08981882F76
:1015400090E09C01C901880F991F9C01C901880F77
:10155000991F880F991F880F991F821B930B805C1E
:101560009D4F2B813C81FC01318320838981882F11
:1015700090E09C01C901880F991F9C01C901880F47
:10158000991F880F991F880F991F821B930B865CE8
:101590009D4FFC01408151818981882F90E09C0101
:1015A000C901880F991F9C01C901880F991F880FD5
:1015B000991F880F991F821B930B865C9D4FFC011E
:1015C00080819181FC0180818260FA01808378941E
:1015D00035C08A81813190F58981282F30E044E13E
:1015E000429FC001439F900D11248E599D4F2B8126
:1015F0003C81FC01318320838981282F30E044E144
:10160000429FC001439F900D1124885A9D4FFC01B9
:10161000808191812981422F50E064E1649F900193
:10162000659F300D1124285A3D4FF90120813181E9
:10163000F90120812260FC012083789400000F9042
:101640000F900F900F90DF91CF910895CF93DF937C
:1016500000D000D0CDB7DEB78A836B834C8319826C
:101660008A81882311F4198205C08A818230E1F5CC
:1016700081E089838B818823D1F48981882F90E050
:101680009C01C901880F991F9C01C901880F991FEE
:10169000880F991F880F991F821B930B845C9D4FA5
:1016A000FC01808191812C81FC0120831EC08B81F3
:1016B0008130D9F48981882F90E09C01C901880F7D
:1016C000991F9C01C901880F991F880F991F880FC6
:1016D000991F821B930B825C9D4FFC01808191813D
:1016E0002C81FC01208301C000000F900F900F900F
:1016F0000F90DF91CF910895CF93DF93CDB7DEB7F1
:101700002A970FB6F894DEBF0FBECDBF8A878A85B1
:101710008D310CF037C28A85082E000C990B9C0184
:10172000215031094BE0429FC001439F900D11248D
:10173000885F9E4FFC0180818C838A85082E000C77
:10174000990B9C01215031094BE0429FC001439FFE
:10175000900D1124875F9E4FFC0180818D838C81C9
:101760008F3F09F412C28D818F3F09F40EC2198296
:101770001A821B828C81882321F08C81823009F0AF
:1017800046C088E089838C81882311F41B8205C0C0
:101790008C81823011F481E08B838B81882F90E0E3
:1017A0009C01C901880F991F9C01C901880F991FCD
:1017B000880F991F880F991F821B930B8C5C9D4F7C
:1017C000FC0180818823E1F08B81882F90E09C01CF
:1017D000C901880F991F9C01C901880F991F880FA3
:1017E000991F880F991F821B930B8B5C9D4FFC01E7
:1017F000908181E08927882319F081E090E002C080
:1018000080E090E08A838A8181708A8330C08C81F5
:10181000813009F0B9C180E189831B828B81282F37
:1018200030E044E1429FC001439F900D1124805B52
:101830009D4FFC0180818823A1F08B81282F30E00F
:1018400044E1429FC001439F900D11248F5A9D4F48
:10185000FC01908181E08927882319F081E090E0E4
:1018600002C080E090E08A838A8181708A839A81B5
:1018700081E08927882309F488C18C8169810E94CD
:10188000F9098981883009F06BC18B81882F90E03C
:101890009C01C901880F991F9C01C901880F991FDC
:1018A000880F991F880F991F821B930B8B5C9D4F8C
:1018B000FC01908181E08927882309F4DDC08B81B8
:1018C000882F90E09C01C901880F991F9C01C901D4
:1018D000880F991F880F991F880F991F821B930BE0
:1018E0008B5C9D4F21E0FC0120838B81882F90E051
:1018F0009C01C901880F991F9C01C901880F991F7C
:10190000880F991F880F991F821B930B885C9D4F2E
:10191000FC01408151818B81882F90E09C01C9019D
:10192000880F991F9C01C901880F991F880F991F63
:10193000880F991F821B930B885C9D4FFC0180814F
:101940009181FC018081877FFA0180838B81882FC0
:1019500090E09C01C901880F991F9C01C901880F63
:10196000991F880F991F880F991F821B930B8A5C00
:101970009D4FFC0180819181FC0180818E838B8150
:10198000882F90E09C01C901880F991F9C01C90113
:10199000880F991F880F991F880F991F821B930B1F
:1019A0008A5C9D4FFC01808191812E8121602D7F79
:1019B000FC0120838B81882F90E09C01C901880F56
:1019C000991F9C01C901880F991F880F991F880FC3
:1019D000991F821B930B885C9D4FFC018081918134
:1019E0008F838B81882F90E09C01C901880F991FFC
:1019F0009C01C901880F991F880F991F880F991F93
:101A0000821B930B845C9D4FFC0180819181FC01C2
:101A100010828B81882F90E09C01C901880F991F4B
:101A20009C01C901880F991F880F991F880F991F62
:101A3000821B930B825C9D4FFC0180819181FC0194
:101A400010828B81882F90E09C01C901880F991F1B
:101A50009C01C901880F991F880F991F880F991F32
:101A6000821B930B885C9D4FFC01808191812F81AB
:101A7000287F2160FC0120838D818823A9F58B813B
:101A8000882F90E09C01C901880F991F9C01C90112
:101A9000880F991F880F991F880F991F821B930B1E
:101AA0008A5C9D4FFC0180819181FC018081888747
:101AB0008B81882F90E09C01C901880F991F9C01A0
:101AC000C901880F991F880F991F880F991F821BC2
:101AD000930B8A5C9D4FFC018081918128852F7337
:101AE0002068FC01208337C08D818130A1F58B8176
:101AF000882F90E09C01C901880F991F9C01C901A2
:101B0000880F991F880F991F880F991F821B930BAD
:101B10008A5C9D4FFC0180819181FC0180818987D5
:101B20008B81882F90E09C01C901880F991F9C012F
:101B3000C901880F991F880F991F880F991F821B51
:101B4000930B8A5C9D4FFC018081918129852F70C8
:101B50002062FC01208361E08A850E94420215C058
:101B60008981803191F48B81282F30E044E1429FBC
:101B7000C001439F900D11248F5A9D4F21E0FC011D
:101B8000208303C0000001C000002A960FB6F8941D
:101B9000DEBF0FBECDBFDF91CF910895CF93DF930E
:101BA000CDB7DEB728970FB6F894DEBF0FBECDBF16
:101BB0008C834D835E836F8378878C81082E000C25
:101BC000990B9C01215031094BE0429FC001439F7A
:101BD000900D1124885F9E4FFC01808189838C8148
:101BE000082E000C990B9C01215031094BE0429FBB
:101BF000C001439F900D1124875F9E4FFC0180819F
:101C00008A831B828D819E81AF81B8859C01AD0145
:101C100060E070E080E89FE30E944710DC01CB01A8
:101C200020E030E0A901BC01CD010E942810DC01B8
:101C3000CB018D839E83AF83B8878981882319F078
:101C400089818230D1F420E030E04FE753E46D81A8
:101C50007E818F8198850E942A11DC01CB01BC0115
:101C6000CD010E94780FDC01CB01282F9A81898158
:101C7000422F692F0E94260B04C08981813009F40C
:101C80001B82000028960FB6F894DEBF0FBECDBFB2
:101C9000DF91CF910895CF93DF93CDB7DEB70000EA
:101CA000DF91CF9108955058BB27AA270E946B0E51
:101CB0000C94DC100E94A31038F00E94AA1020F0AF
:101CC00039F49F3F19F426F40C9490100EF4E0952B
:101CD000E7FB0C948A10E92F0E94011158F3BA1700
:101CE000620773078407950720F079F4A6F50C9432
:101CF00023110EF4E0950B2EBA2FA02D0B01B90184
:101D000090010C01CA01A0011124FF27591B99F071
:101D1000593F50F4503E68F11A16F040A22F232F7D
:101D2000342F4427585FF3CF469537952795A795CD
:101D3000F0405395C9F77EF41F16BA0B620B730B74
:101D4000840BBAF09150A1F0FF0FBB1F661F771FE5
:101D5000881FC2F70EC0BA0F621F731F841F48F49A
:101D6000879577956795B795F7959E3F08F0B0CF23
:101D70009395880F08F09927EE0F9795879508950A
:101D80000E94661008F481E008950E94B310E39564
:101D90000C94ED100E94DE0E0C94DC100E94AA1030
:101DA00058F00E94A31040F029F45F3F29F00C94F2
:101DB0008A1051110C9424110C9490100E9401115E
:101DC00068F39923B1F3552391F3951B550BBB276A
:101DD000AA2762177307840738F09F5F5F4F220FAF
:101DE000331F441FAA1FA9F335D00E2E3AF0E0E8A6
:101DF00032D091505040E695001CCAF72BD0FE2FF0
:101E000029D0660F771F881FBB1F26173707480783
:101E1000AB07B0E809F0BB0B802DBF01FF2793583B
:101E20005F4F3AF09E3F510578F00C948A100C9465
:101E300024115F3FE4F3983ED4F386957795679538
:101E4000B795F7959F5FC9F7880F911D9695879570
:101E500097F90895E1E0660F771F881FBB1F62178F
:101E600073078407BA0720F0621B730B840BBA0B4D
:101E7000EE1F88F7E0950895BEE304D008F490E8DB
:101E80000895BFE322273327A9010E94091160F1B9
:101E90009F5748F1B91740F1BFE3B91B9927B850D4
:101EA0003AF4660F771F881F991FB395D2F316C0B7
:101EB000B8504AF0232F342F452F562F672F782FF5
:101EC0008827B850BAF7B85F49F086957795679537
:101ED0005795479537952795BA95B9F716F40E9407
:101EE000931088940895889460E070E0CB01089581
:101EF0000E94091188F09F5798F0B92F9927B75180
:101F0000B0F0E1F0660F771F881F991F1AF0BA959D
:101F1000C9F714C0B13091F00E942311B1E00895C7
:101F20000C942311672F782F8827B85F39F0B93FB9
:101F3000CCF3869577956795B395D9F73EF4909550
:101F40008095709561957F4F8F4F9F4F089597FBB8
:101F500016F40E9493100C94EB0FE89409C097FBC1
:101F60003EF490958095709561957F4F8F4F9F4F70
:101F70009923A9F0F92F96E9BB279395F6958795B4
:101F800077956795B795F111F8CFFAF4BB0F11F477
:101F900060FF1BC06F5F7F4F8F4F9F4F16C088231E
:101FA00011F096E911C0772321F09EE8872F762F54
:101FB00005C0662371F096E8862F70E060E02AF095
:101FC0009A95660F771F881FDAF7880F9695879581
:101FD00097F90895E894F92F96EBFF2381F01216F4
:101FE00013061406440B9395F69587957795679598
:101FF00057954040FF23B9F71BC0992708958823C0
:1020000051F49850D2F7872B762F652F542F432FFA
:10201000322F20E0B1F3121613061406440B882366
:102020003AF09A95440F551F661F771F881FCAF70D
:1020300055234AF4440F551F11F460FF04C06F5F2D
:102040007F4F8F4F9F4F880F9695879597F90895EB
:10205000990FBB0B550FAA0BE0E8FEEF16161706FB
:10206000E807F90770F012161306E407F50760F0A9
:10207000BA173CF049F46217730784079507A795D0
:102080001BF4B901CA01BA2FB69597950895990F17
:10209000BB0B550FAA0BE0E8FEEF16161706E80774
:1020A000F90770F012161306E407F50760F0BA1787
:1020B00054F031F42617370748075907A7951BF442
:1020C000B901CA01BA2FB69597950895990F0008DE
:1020D000550FAA0BE0E8FEEF16161706E807F907FA
:1020E000C0F012161306E407F50798F0621B730B95
:1020F000840B950B39F40A2661F0232B242B252B16
:1021000021F408950A2609F4A140A6958FEF811DB8
:10211000811D089597F99F6780E870E060E0089559
:102120009FEF80EC089590958095709560955095FF
:102130004095309521953F4F4F4F5F4F6F4F7F4FE9
:102140008F4F9F4F089500240A94161617061806FD
:102150000906089500240A941216130614060506AB
:1021600008950C9490100E940911D8F3E894E0E0CF
:10217000BB279F57F0F02AED3FE049EC06C0EE0F79
:10218000BB0F661F771F881F28F0B23A62077307DC
:10219000840728F0B25A620B730B840BE3959A956F
:1021A00072F7803830F49A95BB0F661F771F881F2F
:1021B000D2F790480C949911092E0394000C11F455
:1021C000882352F0BB0F40F4BF2B11F460FF04C012
:1021D0006F5F7F4F8F4F9F4F0895EF93E0FF07C0D2
:1021E000A2EA2AED3FE049EC5FEB0E946B0E0E94F1
:1021F000DC100F90039401FC9058E8E6F0E00C949A
:10220000A51157FD9058440F551F59F05F3F71F0CD
:102210004795880F97FB991F61F09F3F79F087954D
:102220000895121613061406551FF2CF4695F1DFD6
:1022300008C0161617061806991FF1CF8695710566
:10224000610508940895E894BB2766277727CB019A
:1022500097F908950E943D110C94DC100E94A31080
:1022600038F00E94AA1020F0952311F00C948A10E7
:102270000C94901011240C9424110E94011170F3FD
:10228000959FC1F3950F50E0551F629FF001729F1B
:10229000BB27F00DB11D639FAA27F00DB11DAA1F2A
:1022A000649F6627B00DA11D661F829F2227B00D77
:1022B000A11D621F739FB00DA11D621F839FA00D02
:1022C000611D221F749F3327A00D611D231F849F52
:1022D000600D211D822F762F6A2F11249F575040A9
:1022E0009AF0F1F088234AF0EE0FFF1FBB1F661F24
:1022F000771F881F91505040A9F79E3F510580F0ED
:102300000C948A100C9424115F3FE4F3983ED4F3AC
:10231000869577956795B795F795E7959F5FC1F790
:10232000FE2B880F911D9695879597F908959F3FED
:1023300031F0915020F4879577956795B795880F80
:10234000911D9695879597F908959F938F937F9305
:102350006F93FF93EF939B01AC010E942A11EF91C1
:10236000FF910E94B9112F913F914F915F910C9471
:102370002A11DF93CF931F930F93FF92EF92DF9277
:102380007B018C01689406C0DA2EEF010E943D119A
:10239000FE01E894A5912591359145915591A6F3BB
:1023A000EF010E946B0EFE019701A801DA9469F714
:1023B000DF90EF90FF900F911F91CF91DF910895E3
:1023C000082E000C990B0E947C0B0895082E000C1F
:1023D000990B0E94CE0D08950E94ED020895CF93AF
:1023E000DF93CDB7DEB728970FB6F894DEBF0FBEE8
:1023F000CDBF19821A821B821C821D821E821F82FF
:1024000018860E942C0329833A834B835C836D8357
:102410007E838F83988729813A814B815C816D818E
:102420007E818F81988528960FB6F894DEBF0FBE07
:10243000CDBFDF91CF91089597FB10F81694000857
:102440000F93083098F00850232F342F452F562F24
:10245000672F782F892F902DF4CF05949795879526
:102460007795679557954795379527950A95AAF7D4
:102470000F9108950024A7FD00942A0F301D401DE0
:10248000501D601D701D801D901D0895F894FFCF94
:102490000128002600270006FFFFFF012B0029006E
:1024A0002A0000FFFFFF012B0029002A0001FFFF87
:1024B000FF012B0029002A0002FFFFFF012B00294A
:1024C000002A00030201FF012B0029002A0004FF5B
:1024D000FFFF0000000000000000FFFFFF00000001
:1024E0000000000000FFFFFF01250023002400067C
:1024F000FFFFFF0125002300240007FFFFFF012B42
:102500000029002A00050001FF012B0029002A00F4
:10251000060000FF012B0029002A0007FFFFFF0132
:1025200025002300240000FFFFFF012500230024D5
:1025300000010100FF01250023002400020101FF2A
:1025400001250023002400030200FF0125002300D1
:10255000240004FFFFFF0125002300240005FFFFE6
:10256000FF0000000000000000FFFFFF000000006F
:1025700000000000FFFFFF0000000000000000FF5F
:10258000FFFF0128002600270000FFFF00012800B0
:102590002600270001FFFF01012800260027000276
:1025A000FFFF020128002600270003FFFF03012888
:1025B000002600270004FFFF040128002600270052
:1025C00005FFFF050000440045006E00470048007D
:1025D000A7010000B000B1007000B300B400A70173
:1025E00000008000810082006F00880089008A005E
:0E25F0008B00A701010008004000000100045C
:00000001FF
