S01D0000777332383132622D637573746F6D2D6472697665722E737265636D
S11300000C9434000C943E000C943E000C943E007E
S11300100C943E000C943E000C943E000C943E0064
S11300200C943E000C943E000C943E000C943E0054
S11300300C943E000C943E000C943E000C943E0044
S11300400C943E000C943E000C943E000C943E0034
S11300500C943E000C943E000C943E000C943E0024
S11300600C943E000C943E0011241FBECFEFD8E048
S1130070DEBFCDBF0E9440000C94A7000C9400008A
S11300800E94900010E000E0D0E0C9E1412F602F11
S11300908D2F0E949200C150C9F70E94A200111135
S11300A004C0DF3F31F0DF5F19C0DF3F29F41F3F99
S11300B039F01F5FDFEF12C01F3F29F4DD2329F061
S11300C0D1501FEF0BC0D11105C00F3F29F00F5FB6
S11300D0D0E004C00F3F11F411500FEF8FEF9CE7F5
S11300E00197F1F700C00000D0CF98E0882364F4B2
S11300F05F9A000000000000000000000000000003
S11301005F980000000008C05F9A00005F9800003C
S11301100000000000000000880F915039F7089596
S1130120579A0895CF93DF93D82F862FC42F0E9418
S113013075008D2F0E9475008C2F0E947500DF9131
S1130140CF91089582E18A95F1F700C00895F8945B
S1050150FFCFDB
S9030000FC
