:100000000C9443000C9460000C9460000C9460000D
:100010000C9460000C9460000C9460000C94DC1450
:100020000C9460000C9460000C9460000C94AB1471
:100030000C9460000C9460000C947A140C94600092
:100040000C9460000C9460000C9460000C946000B0
:100050000C9460000C9460000C9460000C946000A0
:100060000C9460000C94600005A84CCDB2D44EB93D
:100070003836A9020C50B9918688083CA6AAAA2A4B
:10008000BE000000803F11241FBECFEFD8E0DEBFCE
:10009000CDBF13E0A0E0B1E0EAEFF6E602C00590C4
:1000A0000D92A431B107D9F725E0A4E1B3E001C076
:1000B0001D92AF33B207E1F70E9425130C947B33F6
:1000C0000C9400002F923F924F925F926F927F921A
:1000D0008F929F92AF92BF92CF92DF92EF92FF9258
:1000E0000F931F93CF93DF93CDB7DEB7E0970FB693
:1000F000F894DEBF0FBECDBF98AB8FA78FA598A990
:100100009E838D830E945C2D98878F83892F880F13
:10011000880B89878A878B878C878D878E878D81CF
:100120009E81FC0124892F87FC012589288BFC01F5
:100130002689298BFC0127892A8BFC01208D2B8B9A
:10014000FC01218D2C8BFC01228D2D8BFC01838DDC
:100150008E8B2F81388549855A856B857C858D8569
:100160009E85AF84B888C988DA88EB88FC880D89B9
:100170001E890E94A130A22EB32EC42ED52EE62EAB
:10018000F72E082F192FAF8AB88EC98EDA8EEB8E14
:10019000FC8E0D8F1E8F19821A821B821C828D810C
:1001A0009E81FC018389882309F402C18D819E818F
:1001B000FC0184819581CC01A0E0B0E0BC01CD01BF
:1001C0000E940E286B017C018D819E81FC01818142
:1001D000882F90E0A0E0B0E0BC01CD010E940E2885
:1001E000DC01CB019C01AD01C701B6010E942B27A8
:1001F000DC01CB0120E030E04AE754E4BC01CD0152
:100200000E949029DC01CB01BC01CD010E949D27F9
:10021000A22EB32EC42ED52EE62EF72E082F192F80
:10022000AF8EB8A2C9A2DAA2EBA2FCA20DA31EA3B4
:100230008D819E81FC018181282F30E088EE93E042
:10024000B9010E94482FCB0198A78FA3892F880F4F
:10025000880B89A78AA78BA78CA78DA78EA78D81CE
:100260009E81FC0196A181E08927882321F1AF8C32
:10027000B8A0C9A0DAA0EBA0FCA00DA11EA12F88F8
:10028000388C498C5A8C6B8C7C8C8D8C9E8C2A2D56
:100290003B2D4C2D5D2D6E2D7F2D802F912FA22C6F
:1002A000B32CC42CD52CE62CF72C082D192D0E942C
:1002B000AA300CF489C02F88388C498C5A8C6B8CEE
:1002C0007C8C8D8C9E8CAF8CB8A0C9A0DAA0EBA0E2
:1002D000FCA00DA11EA1222D332D442D552D662DE0
:1002E000772D882D992D0E947E2F222E332E442E7D
:1002F000552E662E772E882E992EA22CB32CC42C28
:10030000D52CE62CF72C082D192D8D819E81FC0112
:10031000248CFC01358CFC01468CFC01578CFC01C3
:1003200060A0FC0171A0FC0182A0FC0193A02A2D19
:100330003B2D4C2D5D2D6E2D7F2D802F912FA22CCE
:10034000B32CC42CD52CE62CF72C082D192D0E948B
:10035000A130222E332E442E552E662E772E882E37
:10036000992EAFA0B8A4C9A4DAA4EBA4FCA40DA54F
:100370001EA5222D332D442D552D662D772D882D2C
:10038000992D0E94802FA22EB32EC42ED52EE62E9C
:10039000F72E082F192F2A2D3B2D4C2D5D2D6E2D5C
:1003A0007F2D802F912F29833A834B835C830CC050
:1003B0008D819E81FC0184A195A1CC01A0E0B0E0DB
:1003C00089839A83AB83BC8389819A81AB81BC8109
:1003D000BC01CD01E0960FB6F894DEBF0FBECDBFD5
:1003E000DF91CF911F910F91FF90EF90DF90CF9011
:1003F000BF90AF909F908F907F906F905F904F9045
:100400003F902F900895CF93DF93CDB7DEB7279716
:100410000FB6F894DEBF0FBECDBF8B836C834D83C8
:100420003F832E8319828C81082E000C990B9C012E
:100430002F5F3F4F8D81082E000C990B281739072D
:100440001CF08D81898303C08C818F5F89839C819F
:100450008D81292F281B822F8F5F8A838A81882391
:100460000CF41A828981282F30E08FEF9FEF02C0B1
:10047000880F991F2A95E2F7809590952A81022E80
:10048000000C330BAC0102C0440F551F2A95E2F754
:100490009A018B81882F90E0822393232A81022E58
:1004A000000C330B02C0959587952A95E2F7282F0B
:1004B0008E819F81FC012083898127960FB6F89455
:1004C000DEBF0FBECDBFDF91CF9108954F925F92F7
:1004D0006F927F928F929F92AF92BF92EF92FF9214
:1004E0000F931F93CF93DF93CDB7DEB7AC970FB6C3
:1004F000F894DEBF0FBECDBF9B8B8A8B6C8B5E8B5F
:100500004D8B388F2F8B1A8F098FFC8EEB8E1986AF
:100510001A861B861C861D861E861F86188A8C8955
:10052000282F30E08D899E89B9010E94342F8A835B
:100530004B8D5C8D8D899E89489F9001499F300D20
:10054000589F300D1124898D9A8DA901480F591F8C
:100550008C89282F30E0429FC001439F900D529F0D
:10056000900D11249C838B838B819C81969587951C
:1005700096958795969587959E838D838B8180959B
:1005800087708F834C896F812A893B898D819E81F9
:10059000820F931FFC015081CE0109969C01852F8B
:1005A0000E940302982F8B81890F89836CC08981F7
:1005B000869586958695882F90E09E838D83898188
:1005C000809587708F839B818981981B8C89890F87
:1005D000482F6F812A893B898D819E81820F931FCD
:1005E000FC015081CE0141969C01852F0E9403029F
:1005F0008887F985FD8F8A858E8FEB85EF8FFC8547
:10060000F8A38D8589A3EE85EAA3FF85FBA38889DE
:100610008CA38885E82FF0E02D8D3E8D4F8D58A15D
:1006200069A17AA18BA19CA10E2F0E9455302DA308
:100630003EA34FA358A769A77AA78BA79CA7898930
:10064000282F30E040E050E060E070E0CB014DA0AA
:10065000422A5EA0532A6FA0642A78A4752A89A42E
:10066000862A9AA4972AABA4A82ABCA4B92A4986A8
:100670005A866B867C868D869E86AF86B88A9981DF
:100680008885890F89838981282F30E08B819C811F
:10069000281B390B8C89882F90E02817390708F41C
:1006A00086CF29853A854B855C856D857E858F85CE
:1006B0009889822FAC960FB6F894DEBF0FBECDBFDF
:1006C000DF91CF911F910F91FF90EF90BF90AF906E
:1006D0009F908F907F906F905F904F9008954F9272
:1006E0005F926F927F928F929F92AF92BF92CF92C2
:1006F000DF92EF92FF920F931F93CF93DF93CDB7CB
:10070000DEB767970FB6F894DEBF0FBECDBF9D83EF
:100710008C836E834F83C886D986EA86FB860C87D6
:100720001D872E873F8719821A8288858B838E8149
:10073000082E000C990B9C012F5F3F4F8F81082ED4
:10074000000C990B2817390754F08F8189839E81FB
:100750008F81292F281B822F8F5F8A835DC08E8116
:100760008F5F89839F818981E92FE81B8E2F8A8380
:10077000898181508E838981282F880F330B8FEFD9
:100780009FEF02C0880F991F2A95E2F780959095F8
:100790002A81022E000C330B02C0880F991F2A9564
:1007A000E2F7998B888B892F880F880B8A8B8B8B2C
:1007B0008C8B8D8B8E8B8F8B888548884822898582
:1007C000598858228A856A8868228B857B88782296
:1007D0008C858C8888228D859D8898228E85AE8810
:1007E000A8228F85BF88B8228A81E82F880FFF0B47
:1007F000242D352D462D572D682D792D8A2D9B2D95
:100800000E2F0E947030A22EB32EC42ED52EE62EAF
:10081000F72E082F192FAB828C819D81FC018081DE
:10082000482F8981282F880F330B8FEF9FEF02C04D
:10083000880F991F2A95E2F7809590952A81022EBC
:10084000000C330B02C0880F991F2A95E2F78095A0
:10085000642F68238B81882F90E02E81022E000C5C
:10086000330BA9014F5F5F4F2981022E000C330B20
:10087000FA01E21BF30B9F0102C0880F991F2A9512
:10088000E2F7862B282F8C819D81FC0120838981B2
:1008900067960FB6F894DEBF0FBECDBFDF91CF9144
:1008A0001F910F91FF90EF90DF90CF90BF90AF908E
:1008B0009F908F907F906F905F904F900895AF9230
:1008C000BF92CF92DF92EF92FF920F931F93CF933D
:1008D000DF93CDB7DEB76A970FB6F894DEBF0FBED1
:1008E000CDBF998B888B6A8B5C8B4B8B3E8B2D8B12
:1008F000188F0F8BFA8EE98E1A821B821C821D8242
:100900001E821F8218861986498D5A8D8B899C8973
:10091000489F9001499F300D589F300D11248F89B9
:10092000988DA901480F591F8A89282F30E0429FCE
:10093000C001439F900D529F900D11249B878A8781
:100940008A859B85969587959695879596958795A3
:100950009D878C878A85809587708E87AA88BE84BC
:10096000288939898C859D85F901E80FF91F4FA1E8
:1009700058A569A57AA58BA59CA5ADA5BEA5C42E35
:10098000D52EE62EF72E082F192F2A2F3B2F4A2D72
:100990006B2DCF010E946F03982F8A85890F898361
:1009A00034C08981869586958695882F90E09D87AD
:1009B0008C878981809587708E879A858981981B1D
:1009C0008A89890FA82EBE84288939898C859D85BE
:1009D000F901E80FF91F4FA158A569A57AA58BA5C4
:1009E0009CA5ADA5BEA5C42ED52EE62EF72E082FAC
:1009F000192F2A2F3B2F4A2D6B2DCF010E946F03F9
:100A00008F8799818F85890F89838981282F30E08D
:100A10008A859B85281B390B8A89882F90E02817A7
:100A2000390708F4BECF80E06A960FB6F894DEBFAF
:100A30000FBECDBFDF91CF911F910F91FF90EF902F
:100A4000DF90CF90BF90AF9008958F929F92AF921A
:100A5000BF92CF92DF92EF92FF920F93CF93DF93EB
:100A6000CDB7DEB761970FB6F894DEBF0FBECDBF2E
:100A700089838981E82FF0E02FEF3FEF4FEF5FEFA1
:100A80006FEF7FEF8FEF9FEF0E2F0E9455302A837D
:100A90003B834C835D836E837F83888799878A80BD
:100AA00080949B809094AC80A094BD80B094CE80C4
:100AB000C094DF80D094E884E094F984F0948A862E
:100AC0009B86AC86BD86CE86DF86E88AF98A2A8533
:100AD0003B854C855D856E857F8588899989619682
:100AE0000FB6F894DEBF0FBECDBFDF91CF910F914F
:100AF000FF90EF90DF90CF90BF90AF909F908F903E
:100B000008952F923F924F925F926F927F928F92B1
:100B10009F92AF92BF92CF92DF92EF92FF920F938C
:100B20001F93CF93DF93CDB7DEB7E1970FB6F8945D
:100B3000DEBF0FBECDBF9FA78EA779AB68AB8EA5DA
:100B40009FA5FC01918181E08927882379F08EA5FA
:100B50009FA5FC0184819581FC012081318188A9B8
:100B600099A9F90109958D878D8578C18EA59FA5D5
:100B7000FC01828193819F878E878E859F850E944D
:100B80006200DC01CB01888B998BAA8BBB8B8E8595
:100B90009F85FC0182890E942505A22EB32EC42EBA
:100BA000D52EE62EF72E082F192FAC8ABD8ACE8AB5
:100BB000DF8AE88EF98E0A8F1B8F88899989AA8926
:100BC000BB89BB230CF449C18E859F85FC018481C0
:100BD00095819C0140E050E088899989AA89BB8968
:100BE00082179307A407B5070CF037C18E859F8540
:100BF000FC01228133818E859F85FC01868197814E
:100C0000A085B185BC0148895989649FC001659F51
:100C1000900D749F900D1124820F931F9D8F8C8FC8
:100C20001A8219820FC11C821B82FCC08E859F858F
:100C3000FC01248535858E859F85FC014285538581
:100C40008E859F85FC01A289EB81FC8169817A8177
:100C50008C8D9D8D7F018B016A2F0E946602282F4B
:100C600030E040E050E060E070E0CB012E8F3F8F3D
:100C700048A359A36AA37BA38CA39DA388A999A980
:100C8000FC012785308988A999A9FC0145855685ED
:100C900088A999A9FC01A08588A999A9FC0183814B
:100CA0009481EB81FC8169817A817F018B016A2FBC
:100CB0000E946602282F30E040E050E060E070E0E3
:100CC000CB012EA33FA348A759A76AA77BA78CA750
:100CD0009DA71D821E821F82188619861A861B8672
:100CE0001C862C893D894E895F89688D798D8A8D16
:100CF0009B8DAE8CBF8CC8A0D9A0EAA0FBA00CA194
:100D00001DA10E94A130A22EB32EC42ED52EE62EF8
:100D1000F72E082F192F2EA03FA048A459A46AA48B
:100D20007BA48CA49DA42A2D3B2D4C2D5D2D6E2DD6
:100D30007F2D802F912FA22CB32CC42CD52CE62CE8
:100D4000F72C082D192D0E94AA3088F48C898D83E8
:100D50008D898E838E898F838F898887888D8987F7
:100D6000898D8A878A8D8B878B8D8C8722C02EA157
:100D70003FA148A559A56AA57BA58CA59DA5AE8CCC
:100D8000BF8CC8A0D9A0EAA0FBA00CA11DA10E9405
:100D90008C30A22EB32EC42ED52EE62EF72E082F81
:100DA000192FAD82BE82CF82D886E986FA860B875C
:100DB0001C8788A999A9FC012785308988A999A948
:100DC000FC014585568588A999A9FC01B08588A9AB
:100DD00099A9FC0183819481EB81FC8169817A81ED
:100DE000AC85AF93AB85AF93AA85AF93A985AF933D
:100DF000A885AF93AF81AF93AE81AF93AD81AF9331
:100E00007F018B016B2F0E945F048DB79EB7089600
:100E10000FB6F894DEBF0FBECDBF8B819C810196CB
:100E20009C838B838E859F85FC01248535858B81F2
:100E30009C818217930708F4F9CE89819A810196E3
:100E40009A8389838E859F85FC01228533858981DC
:100E50009A818217930708F4E6CE80E0E1960FB6F8
:100E6000F894DEBF0FBECDBFDF91CF911F910F91E0
:100E7000FF90EF90DF90CF90BF90AF909F908F90BA
:100E80007F906F905F904F903F902F900895CF93F9
:100E9000DF9300D0CDB7DEB79A83898390910101AB
:100EA00080910001981778F58091010191E0980FE9
:100EB00090930101882F90E00196880F991F805030
:100EC0009F4F29813A81FC013183208389819A8156
:100ED000FC012181328189819A81FC01368325833D
:100EE00089819A81FC012181328189819A81FC0169
:100EF00081859285A385B485280F391F89819A81C0
:100F0000FC013483238380E00F900F90DF91CF9119
:100F10000895CF93DF9300D000D0CDB7DEB79A838A
:100F200089837C836B8389819A81FC01838D8530E1
:100F3000C0F489819A81FC01238D31E0320F8981CF
:100F40009A81FC01338F822F90E029813A81880FAA
:100F5000991F820F931F41962B813C81FC013183A5
:100F6000208380E00F900F900F900F90DF91CF9132
:100F70000895CF93DF9300D000D01F92CDB7DEB796
:100F80009C838B836D8319821A8236C08981882F56
:100F900090E02B813C81880F991F820F931F41960F
:100FA000FC0180819181FC0190818D81981719F459
:100FB0008A818F5F8A838981882F90E02A81222FFE
:100FC00030E04B815C81220F331F240F351F2F5ED1
:100FD0003F4FF901208131814B815C81880F991F3E
:100FE000840F951F4196FC013183208389818F5F97
:100FF00089838A818F5F8A838981282F30E08B8162
:101000009C81FC01838D882F90E001972817390778
:101010000CF4BCCF8B819C81FC01838D882351F023
:101020008B819C81FC01838D2FEF280F8B819C810C
:10103000FC01238F80E00F900F900F900F900F9086
:10104000DF91CF910895CF93DF9300D0CDB7DEB776
:101050009A83898389819A81FC01138E80E00F90A5
:101060000F90DF91CF910895CF93DF93CDB7DEB787
:1010700028970FB6F894DEBF0FBECDBF198280C08F
:101080008981882F90E00196880F991F80509F4F8B
:10109000FC01808191819D838C831A822DC08A817D
:1010A000882F90E02C813D81880F991F820F931F1C
:1010B0004196FC01808191812C813D81B9010E9482
:1010C00081058E838E818430A1F48A81882F90E0FF
:1010D0002C813D81880F991F820F931F4196FC013F
:1010E00080819181FC0120818C819D81622F0E94F1
:1010F000B9078A818F5F8A838C819D81FC01938DE2
:101100008A81891760F28C819D81FC0183819481A1
:1011100098878F838C819D81FC01258136818C810C
:101120009D81FC01348323838C819D812F813885AF
:10113000FC01368325831B820FC08C819D81FC01BD
:10114000238134818B81882F90E0820F931FFC01D3
:1011500010828B818F5F8B838B81282F30E040E062
:1011600050E08C819D81FC0181859285A385B485A9
:10117000281739074A075B0700F389818F5F898346
:10118000909101018981891708F47ACF000028968F
:101190000FB6F894DEBF0FBECDBFDF91CF9108959B
:1011A000CF93DF93CDB7DEB70000DF91CF910895E5
:1011B000CF93DF9300D01F92CDB7DEB78B838FEF35
:1011C00089831A821CC08A81282F30E042E2429F24
:1011D000C001439F900D11248A5E9C4FFC018081C9
:1011E000282F880F330B8B81882F90E02817390721
:1011F00019F48A81898309C08A818F5F8A830E945A
:10120000300C982F8A818917F0F289810F900F9006
:101210000F90DF91CF910895CF93DF9300D0CDB79A
:10122000DEB79A83898389819A81FC011082898142
:101230009A812FEFFC01218389819A81FC0112821E
:1012400089819A81FC01138289819A81FC0114822F
:1012500089819A81FC011582FC011682FC011782AA
:10126000FC011086FC011186FC011286FC0113862C
:10127000FC01148689819A81FC01158689819A81F5
:1012800020ED38E0FC013787268789819A81FC01AF
:10129000108A89819A81FC01118A89819A8120EDC5
:1012A00038E0FC01338B228B89819A81FC01148AFE
:1012B00089819A81FC01158A89819A8120ED38E023
:1012C000FC01378B268B89819A81FC01108E8981E4
:1012D0009A81FC01118E89819A8120ED38E0FC0110
:1012E000338F228F89819A81FC01148E89819A81A2
:1012F000FC01158E89819A8120ED38E0FC01378F41
:10130000268F89819A81FC0110A289819A81FC0132
:1013100011A200000F900F90DF91CF910895CF930D
:10132000DF93CDB7DEB7A3970FB6F894DEBF0FBE3D
:10133000CDBF198228C08981282F30E042E2429F28
:10134000C001439F900D11248B5E9C4F22E2FC0153
:10135000DE01129601900D922A95E1F78A81082EFE
:10136000000C990B60E070E00E941B2C8D81282FEF
:1013700030E08A81082E000C990BB9010E94302CB4
:1013800089818F5F89830E94300C982F898189170A
:1013900090F20000A3960FB6F894DEBF0FBECDBF4B
:1013A000DF91CF9108952F923F924F925F926F926B
:1013B0007F928F929F92AF92BF92CF92DF92EF92E5
:1013C000FF920F931F93CF93DF93CDB7DEB765974F
:1013D0000FB6F894DEBF0FBECDBF1982B8C18981A8
:1013E000282F30E042E2429FC001439F900D11241C
:1013F00001968C5E9C4F9B838A838A819B81FC0132
:1014000080818C838C81082E000C990B0E940A2C01
:101410008D830E945C2DA22EB32EC42ED52EE62ED7
:10142000F72E082F192FAE82BF82C886D986EA868A
:10143000FB860C871D878A819B81FC012580FC012E
:101440003680FC014780FC015084FC016184FC0172
:101450007284FC018384FC0194842E813F81488541
:1014600059856A857B858C859D85A22CB32CC42CDF
:10147000D52CE62CF72C082D192D0E94A130A22E78
:10148000B32EC42ED52EE62EF72E082F192FAE869A
:10149000BF86C88AD98AEA8AFB8A0C8B1D8B8A810F
:1014A0009B81FC018481882309F4A7C08A819B81E8
:1014B000FC0192818D819817D1F5AE84BF84C888D4
:1014C000D988EA88FB880C891D892A2D3B2D4C2D53
:1014D0005D2D6E2D7F2D802F912FAAE00E94B330BD
:1014E00009F104F18A819B8121E0FC0125878A8131
:1014F0009B81FC01918981E08927882369F08A8199
:101500009B81FC018089882339F08A819B81FC01C1
:1015100086859785FC0109958A819B8121E0FC01E4
:10152000218B93C08A819B81FC0115868EC0AE847D
:10153000BF84C888D988EA88FB880C891D892A2D30
:101540003B2D4C2D5D2D6E2D7F2D802F912FAAE0F0
:101550000E94B330A9F1A4F18A819B81FC018489A6
:10156000882339F08A819B81FC0182899389FC015F
:101570000995AE84BF84C888D988EA88FB880C891D
:101580001D892A2D3B2D4C2D5D2D6E2D7F2D802FFD
:10159000912F2F3C374041055105610571058105AB
:1015A000910509F06CF48A819B81FC01808D882370
:1015B00039F08A819B81FC0186899789FC01099514
:1015C0008A819B81FC0114828A819B81FC011586A2
:1015D0008A819B81FC01118A8A819B81FC01158A89
:1015E0008A819B81FC01118E8A819B81FC01158E71
:1015F0008A819B81FC0111A228C08A819B81FC0108
:1016000092818D81981709F58A819B8121E0FC01E7
:1016100024830E945C2DA22EB32EC42ED52EE62E3E
:10162000F72E082F192F8A819B81FC01A582FC01CE
:10163000B682FC01C782FC01D086FC01E186FC0178
:10164000F286FC010387FC0114878A819B81FC01DF
:101650008585882309F478C08A819B81FC01958D5A
:1016600081E089278823A1F1AE84BF84C888D98806
:10167000EA88FB880C891D892A2D3B2D4C2D5D2D78
:101680006E2D7F2D802F912F203D37404105510534
:101690006105710581059105D9F0D4F08A819B819E
:1016A000FC01958D81E08927882369F08A819B81DF
:1016B000FC01848D882339F08A819B81FC01828D15
:1016C000938DFC0109958A819B8121E0FC01258F86
:1016D0008A819B81FC0191A181E089278823A1F166
:1016E000AE84BF84C888D988EA88FB880C891D89A4
:1016F0002A2D3B2D4C2D5D2D6E2D7F2D802F912F72
:101700002838334141055105610571058105910571
:10171000D9F0D4F08A819B81FC0191A181E08927D5
:10172000882369F08A819B81FC0180A1882339F09C
:101730008A819B81FC01868D978DFC0109958A81A8
:101740009B8121E0FC0121A389818F5F89830E9415
:10175000300C982F8981891708F441CE00006596D6
:101760000FB6F894DEBF0FBECDBFDF91CF911F91B2
:101770000F91FF90EF90DF90CF90BF90AF909F9030
:101780008F907F906F905F904F903F902F90089533
:10179000CF93DF93CDB7DEB727970FB6F894DEBFB0
:1017A0000FBECDBF8C836D834E832F830E94300C80
:1017B00089830E94390C982F8981891708F046C0C7
:1017C0008981282F30E042E2429FC001439F900D63
:1017D000112401968C5E9C4F9B838A838A819B8116
:1017E0000E940C092C818A819B81FC0121838A81C2
:1017F0009B812D81FC0120838A819B812E81FC01AC
:1018000022838A819B812F81FC0123838A819B8192
:10181000FC018081082E000C990B60E070E00E94B2
:101820001B2C8A819B81FC018381282F30E08A81D7
:101830009B81FC018081082E000C990BB9010E944C
:10184000302C809114038F5F80931403000027963F
:101850000FB6F894DEBF0FBECDBFDF91CF910895D4
:10186000CF93DF93CDB7DEB780911403DF91CF9193
:101870000895CF93DF93CDB7DEB78AE0DF91CF91A4
:101880000895CF93DF93CDB7DEB727970FB6F894BF
:10189000DEBF0FBECDBF9D838C836E834F838E8151
:1018A0000E94D8088983898188230CF465C08981C6
:1018B000282F880F330B42E2429FC001439F900DB7
:1018C000112401968C5E9C4F9B838A838F81882F85
:1018D00090E08230910541F1833091052CF400971E
:1018E00049F00197A1F049C08330910551F1049767
:1018F000A9F143C08A819B812C813D81FC013787FE
:1019000026878A819B8121E0FC01208B36C08A8159
:101910009B812C813D81FC01338B228B8A819B81B1
:1019200021E0FC01248B29C08A819B812C813D818F
:10193000FC01378B268B8A819B8121E0FC01208F63
:101940001CC08A819B812C813D81FC01338F228FB9
:101950008A819B8121E0FC01248F0FC08A819B81B9
:101960002C813D81FC01378F268F8A819B8121E06C
:10197000FC0120A3000001C0000027960FB6F894D8
:10198000DEBF0FBECDBFDF91CF9108952F923F9262
:101990004F925F926F927F928F929F92AF92BF927F
:1019A000CF92DF92EF92FF920F931F93CF93DF932B
:1019B000CDB7DEB760970FB6F894DEBF0FBECDBFD0
:1019C0001A821B821C820E945C2DA22EB32EC42E72
:1019D000D52EE62EF72E082F192F209015053090C2
:1019E00016054090170550901805609019057090E5
:1019F0001A0580901B0590901C052A2D3B2D4C2D1F
:101A00005D2D6E2D7F2D802F912FA22CB32CC42CF9
:101A1000D52CE62CF72C082D192D0E94A1302D83F2
:101A20003E834F83588769877A878B879C87AD80F1
:101A3000BE80CF80D884E984FA840B851C852A2D4A
:101A40003B2D4C2D5D2D6E2D7F2D802F912FA0E0F5
:101A50000E94B3300CF460C080911405882309F40F
:101A60005BC02D813E814F81588569857A858B8544
:101A70009C850E940828DC01CB0120E030E64AEE7C
:101A800057E4BC01CD010E942B27DC01CB018D87DF
:101A90009E87AF87B88B20E030E04FE753E46D8539
:101AA0007E858F8598890E949029DC01CB01BC013D
:101AB000CD010E94D927DC01CB018B832D853E858A
:101AC0004F85588960E070E080E89FE30E94B4266B
:101AD000DC01CB0120E030E04FE753E4BC01CD0155
:101AE0000E949029DC01CB01BC01CD010E94D927C5
:101AF000DC01CB018A83198208C04C816B818A8109
:101B00000E948F2689818F5F898389818931A8F31B
:101B10000E94A826000001C084E060960FB6F894E9
:101B2000DEBF0FBECDBFDF91CF911F910F91FF9010
:101B3000EF90DF90CF90BF90AF909F908F907F906D
:101B40006F905F904F903F902F9008952F923F920B
:101B50004F925F926F927F928F929F92AF92BF92BD
:101B6000CF92DF92EF92FF920F931F93CF93DF9369
:101B7000CDB7DEB72E970FB6F894DEBF0FBECDBF40
:101B80000E945C2DA22EB32EC42ED52EE62EF72E4B
:101B9000082F192F20901D0530901E0540901F051D
:101BA00050902005609021057090220580902305BB
:101BB000909024052A2D3B2D4C2D5D2D6E2D7F2DD3
:101BC000802F912FA22CB32CC42CD52CE62CF72CD3
:101BD000082D192D0E94A1302B833C834D835E83F9
:101BE0006F83788789879A872B813C814D815E81BD
:101BF0006F81788589859A850E940828DC01CB0150
:101C000020E030E04AE754E4BC01CD010E942B27DC
:101C1000DC01CB012BED3FE049E450E4BC01CD01F8
:101C20000E949029DC01CB01BC01CD010E94262736
:101C3000DC01CB0120E030E040E85FE3BC01CD01F6
:101C40000E94B526DC01CB0120E030E040E050E40A
:101C5000BC01CD010E942B27DC01CB018B879C8727
:101C6000AD87BE87AB80BC80CD80DE80EF80F884FE
:101C700009851A852A2D3B2D4C2D5D2D6E2D7F2D2E
:101C8000802F912F2738334141055105610571059A
:101C90008105910581F07CF0198208C040E060E088
:101CA00080E00E948F2689818F5F898389818931B5
:101CB000A8F384E02CC01A8224C020E030E04FE674
:101CC00053E46B857C858D859E850E949029DC017F
:101CD000CB0120E030E040E851E4BC01CD010E949E
:101CE000B526DC01CB01BC01CD010E94D927DC0166
:101CF000CB0140E0682F80E00E948F268A818F5FB1
:101D00008A838A818931C8F20E94A82680E02E96B3
:101D10000FB6F894DEBF0FBECDBFDF91CF911F91FC
:101D20000F91FF90EF90DF90CF90BF90AF909F907A
:101D30008F907F906F905F904F903F902F9008957D
:101D40002F923F924F925F926F927F928F929F92CB
:101D5000AF92BF92CF92DF92EF92FF920F931F93B9
:101D6000CF93DF93CDB7DEB763970FB6F894DEBF9E
:101D70000FBECDBF1B828FEF8C831D821E820E94FF
:101D80005C2DA22EB32EC42ED52EE62EF72E082FB4
:101D9000192F209026053090270540902805509057
:101DA000290560902A0570902B0580902C05909055
:101DB0002D052A2D3B2D4C2D5D2D6E2D7F2D802F39
:101DC000912FA22CB32CC42CD52CE62CF72C082D4B
:101DD000192D0E94A1302F83388749875A876B8736
:101DE0007C878D879E87AF80B884C984DA84EB8432
:101DF000FC840D851E852A2D3B2D4C2D5D2D6E2DD1
:101E00007F2D802F912FA0E00E94B3300CF4B3C03F
:101E1000AF80B884C984DA84EB84FC840D851E8588
:101E20002A2D3B2D4C2D5D2D6E2D7F2D802F912F3A
:101E3000273A314641055105610571058105910536
:101E400011F00CF098C080912505882309F493C007
:101E50002F81388549855A856B857C858D859E8542
:101E60000E940828DC01CB0120E030E543EC56E479
:101E7000BC01CD010E942B27DC01CB018F87988B01
:101E8000A98BBA8B20E030E04FE753E46F85788967
:101E900089899A890E949029DC01CB01BC01CD017E
:101EA0000E94D927DC01CB018B832F853889498992
:101EB0005A8960E070E080E89FE30E94B426DC016C
:101EC000CB0120E030E04FE753E4BC01CD010E949C
:101ED0009029DC01CB01BC01CD010E94D927DC0196
:101EE000CB018C832F85388949895A8960E070E05D
:101EF00080E89FE30E94B426DC01CB0120E030E0C3
:101F000048EC51E4BC01CD010E949029DC01CB01D9
:101F1000BC01CD010E94D927DC01CB018B8B19823A
:101F200008C04D816C818B810E948F2689818F5FD3
:101F3000898399818B899817A0F31A8208C04FEF83
:101F40006FEF8FEF0E948F268A818F5F8A838A814D
:101F5000282F30E08B89882F90E049E150E0BA01CA
:101F6000681B790BCB01281739074CF30E94A82670
:101F7000000080E001C084E063960FB6F894DEBFF5
:101F80000FBECDBFDF91CF911F910F91FF90EF90CA
:101F9000DF90CF90BF90AF909F908F907F906F9089
:101FA0005F904F903F902F900895CF93DF9300D094
:101FB00000D0CDB7DEB78091300590913105A0916A
:101FC0003205B091330520E030E040E05FE3BC0132
:101FD000CD010E948B2918160CF0F1C080913005BC
:101FE00090913105A0913205B091330520E030E0A9
:101FF00040E05FE3BC01CD010E94B426DC01CB01CF
:1020000020E030E040E05FE3BC01CD010E942B27DF
:10201000DC01CB0189839A83AB83BC8380912F053C
:10202000882F90E08230910509F44AC083309105F1
:102030002CF4009779F0019761F1A5C084309105E7
:1020400009F46CC0843091050CF451C0059709F473
:1020500080C099C089819A81AB81BC81AC01BD01EE
:1020600081E190E00E94E42C89819A81AB81BC815E
:10207000AC01BD018CE090E00E94E42C89819A8142
:10208000AB81BC81AC01BD018BE090E00E94E42CEF
:10209000A8C089819A81AB81BC81AC01BD0181E17D
:1020A00090E00E94E42C60E070E08CE090E00E9400
:1020B000E42C60E070E08BE090E00E94E42C91C0A2
:1020C00060E070E081E190E00E94E42C89819A81D7
:1020D000AB81BC81AC01BD018CE090E00E94E42C9E
:1020E00060E070E08BE090E00E94E42C7AC060E059
:1020F00070E081E190E00E94E42C60E070E08CE010
:1021000090E00E94E42C89819A81AB81BC81AC0172
:10211000BD018BE090E00E94E42C63C089819A812C
:10212000AB81BC81AC01BD0181E190E00E94E42C57
:1021300089819A81AB81BC81AC01BD018CE090E0CA
:102140000E94E42C60E070E08BE090E00E94E42CC0
:1021500048C060E070E081E190E00E94E42C898159
:102160009A81AB81BC81AC01BD018CE090E00E9402
:10217000E42C89819A81AB81BC81AC01BD018BE0EB
:1021800090E00E94E42C89819A81AB81BC81AC01F2
:10219000BD0181E190E00E94E42C60E070E08CE001
:1021A00090E00E94E42C89819A81AB81BC81AC01D2
:1021B000BD018BE090E00E94E42C000012C060E0C2
:1021C00070E081E190E00E94E42C60E070E08CE03F
:1021D00090E00E94E42C60E070E08BE090E00E94D0
:1021E000E42C80E00F900F900F900F90DF91CF9133
:1021F0000895CF93DF93CDB7DEB78CE091E00E94D6
:1022000047078CE091E00E94230862E471E08CE0D3
:1022100091E00E9489070E948F0921E030E040E0B0
:1022200050E062E070E080E090E00E94C80B21E0A6
:1022300030E040E050E063E070E081E090E00E9438
:10224000C80B21E030E040E050E064E070E082E064
:1022500090E00E94C80B21E030E040E050E065E0F3
:1022600070E083E090E00E94C80B40E050E0BA01CB
:1022700081E10E94E42C40E050E0BA018CE00E9431
:10228000E42C40E050E0BA018BE00E94E42C42E0F4
:1022900050E063E070E086E791E10E94410C41E08C
:1022A00050E060E070E08EE192E10E94410C40E07D
:1022B00050E060E070E088E692E10E94410C0E94EC
:1022C00075260000DF91CF910895CF93DF93CDB7AE
:1022D000DEB7809134058F5F809334050E94340807
:1022E0000E94D3090000DF91CF910895AF92BF9271
:1022F000CF92DF92EF92FF920F931F93CF93DF93D2
:10230000CDB7DEB781E0809314050E945C2DA22E2C
:10231000B32EC42ED52EE62EF72E082F192FA092FD
:102320001505B0921605C0921705D0921805E092D7
:102330001905F0921A0500931B0510931C056AE21B
:1023400071E08CE091E00E94890742E050E063E098
:1023500070E089EB91E10E94410C0000DF91CF9188
:102360001F910F91FF90EF90DF90CF90BF90AF90B3
:102370000895AF92BF92CF92DF92EF92FF920F93A8
:102380001F93CF93DF93CDB7DEB780912A01682FDB
:102390008CE091E00E94B907109214050E945C2D18
:1023A000A22EB32EC42ED52EE62EF72E082F192FCF
:1023B000A0921D05B0921E05C0921F05D092200567
:1023C000E0922105F0922205009323051093240545
:1023D00062E371E08CE091E00E94890742E050E006
:1023E00063E070E082E092E10E94410C0000DF9126
:1023F000CF911F910F91FF90EF90DF90CF90BF9002
:10240000AF900895CF93DF93CDB7DEB780912F05BE
:10241000863059F442E050E063E070E086E791E1F5
:102420000E94410C10922F0505C080912F058F5FEF
:1024300080932F050000DF91CF910895AF92BF9256
:10244000CF92DF92EF92FF920F931F93CF93DF9380
:10245000CDB7DEB780911405882371F181E08093B8
:1024600025050E945C2DA22EB32EC42ED52EE62E5D
:10247000F72E082F192FA0922605B0922705C0929B
:102480002805D0922905E0922A05F0922B050093A9
:102490002C0510932D0580912A01682F8CE091E086
:1024A0000E94B9076AE371E08CE091E00E9489071D
:1024B00061E083E10E94F52B0000DF91CF911F9135
:1024C0000F91FF90EF90DF90CF90BF90AF90089565
:1024D000CF93DF93CDB7DEB71092250580913A01F7
:1024E000682F8CE091E00E94B9076AE271E08CE00D
:1024F00091E00E94890760E083E10E94F52B0000D3
:10250000DF91CF910895CF93DF93CDB7DEB70E94CF
:1025100025268DE095E10E94832B8DE695E10E94B2
:10252000962B85EB95E10E94A92B85E196E10E940F
:10253000BC2B8EE596E10E94CF2B87ED96E10E94A1
:10254000E22B82EE96E10E94112E8AE297E10E9430
:10255000242E8AE397E10E94372E85E497E10E94BA
:102560004A2E82E697E10E945D2E83ED97E10E945C
:10257000A92E82E897E10E94832E8DE697E10E94C2
:10258000702E82EB97E10E94962E84EF97E10E94D5
:10259000BC2E8AE498E10E940E2D89E898E10E9401
:1025A000212D81E998E10E94342D8EE59FE10E9462
:1025B000BD2D83EA9FE10E94E32D86E99FE10E9401
:1025C000D02D82E090E20E94F62D8EEE90E20E94E5
:1025D0004D2C80E493E20E94602C8BE493E20E94F5
:1025E000732C88EC93E20E94862C89EE93E20E9481
:1025F000992C8EEF93E20E94AC2C8EE094E20E9424
:10260000BF2C8BE194E20E944E2A8AE294E20E945F
:10261000632A89E394E20E94782A8DE494E20E947E
:102620008B2A85E295E20E949E2A82E395E20E942F
:10263000B12A81E895E20E94C42A85E196E20E94CF
:10264000D72A0000DF91CF910895AF92BF92CF9229
:10265000DF92EF92FF920F931F93CF93DF93CDB74B
:10266000DEB7CC54D1090FB6F894DEBF0FBECDBF94
:102670000E94831260E180E00E94472D87E00E9463
:10268000D22C8BE00E94D22C8CE00E94D22C81E1D3
:102690000E94D22C0E948F090E94F9100E945C2D8A
:1026A000A22EB32EC42ED52EE62EF72E082F192FCC
:1026B000AF82B886C986DA86EB86FC860D871E87D0
:1026C00061E083E10E941B2C87E10E94EA2A41E03D
:1026D00061E087E10E94252B60E470E087E10E94C1
:1026E0003E2B6AE087E10E94112BEE24E39402E086
:1026F00028E040E855E260E070E080E00E94CF2EE4
:1027000028E2CE014996FC01322F11923A95E9F761
:1027100019820E94651187E10E94FC2ADC01CB012D
:10272000988B8F8787E10E94582BDC01CB019A8B15
:10273000898B8F8598898C569240181619062CF42F
:102740008F8598898C56924002C080E090E09C8BE7
:102750008B8B8B899C89CC01A0E0B0E0BC01CD01C2
:102760000E940E28DC01CB0120E030E04AE253E475
:10277000BC01CD010E942B27DC01CB018D8B9E8BF0
:10278000AF8BB88F898191E0980F9983882F90E063
:10279000880F991F880F991F9E012F5F3F4F820F4F
:1027A000931F9C01285E3F4F8D899E89AF89B88D0C
:1027B000F90180839183A283B38389818A3008F0F1
:1027C00019821A821B821C821D821E8223C08E8166
:1027D000882F90E0880F991F880F991F9E012F5F07
:1027E0003F4F820F931F4896FC0180819181A28107
:1027F000B3819C01AD016A817B818C819D810E94A6
:10280000B526DC01CB018A839B83AC83BD838E819B
:102810008F5F8E838E818A30D0F220E030E040E2FC
:1028200051E46A817B818C819D810E942B27DC0190
:10283000CB018A839B83AC83BD838A819B81AC81DE
:10284000BD818093300590933105A0933205B093FC
:1028500033058091300590913105A0913205B091FA
:10286000330520E030E048EC52E4BC01CD010E9489
:102870009029DC01CB01BC01CD010E94D927DC01EC
:10288000CB01292F2F938F9381E193E0892F8F9391
:1028900081E193E08F93CE018F5B9F4F292F2F9380
:1028A0008F930E94C8300F900F900F900F900F9051
:1028B0000F90CE018F5B9F4F0E94BF309C012F5F16
:1028C0003F4FCE018F5B9F4FA901BC0180E00E946A
:1028D000132F6AE080E00E94FE2E6DE080E00E94EF
:1028E000FE2E17CFCF93DF93CDB7DEB70000DF9179
:1028F000CF9108951F920F9200905F000F921124C4
:102900002F933F934F935F936F937F938F939F93F7
:10291000AF93BF93EF93FF93CF93DF93CDB7DEB722
:102920008091880290918902FC0109950000DF9155
:10293000CF91FF91EF91BF91AF919F918F917F9137
:102940006F915F914F913F912F910F9000925F0097
:102950000F901F9018951F920F9200905F000F929A
:1029600011242F933F934F935F936F937F938F9394
:102970009F93AF93BF93EF93FF93CF93DF93CDB725
:10298000DEB78091AA029091AB02FC01099500008C
:10299000DF91CF91FF91EF91BF91AF919F918F9177
:1029A0007F916F915F914F913F912F910F90009286
:1029B0005F000F901F9018951F920F9200905F007C
:1029C0000F9211242F933F934F935F936F937F93B5
:1029D0008F939F93AF93BF93EF93FF93CF93DF9327
:1029E000CDB7DEB78091960290919702FC010995D0
:1029F0000000DF91CF91FF91EF91BF91AF919F9137
:102A00008F917F916F915F914F913F912F910F9097
:102A100000925F000F901F901895CF93DF93CDB772
:102A2000DEB72F970FB6F894DEBF0FBECDBF8E87EF
:102A30006F878E8518160CF046C08E858D310CF090
:102A400042C08E85082E000C990B9C012150310943
:102A50004BE0429FC001439F900D1124885B9E4F25
:102A60002BE0FC01DE01139601900D922A95E1F70F
:102A700081E09F85913009F080E089838C819D8180
:102A8000FC0180818A838C819D812A85422F50E0C0
:102A900021E030E002C0220F331F4A95E2F7322FC7
:102AA00030952A81632F62232981222F30E04A85C5
:102AB000442F50E002C0220F331F4A95E2F7262B25
:102AC000FC01208301C000002F960FB6F894DEBFF2
:102AD0000FBECDBFDF91CF910895CF93DF93CDB7D8
:102AE000DEB72D970FB6F894DEBF0FBECDBF8D8732
:102AF0008D8518161CF48D858D3114F080E02CC066
:102B00008D85082E000C990B9C01215031094BE05A
:102B1000429FC001439F900D1124885B9E4F2BE084
:102B2000FC01DE01129601900D922A95E1F78D814C
:102B30009E81FC018081882F90E02985222F30E042
:102B400002C0959587952A95E2F78170898381E087
:102B50009981913009F080E02D960FB6F894DEBF90
:102B60000FBECDBFDF91CF910895CF93DF93CDB747
:102B7000DEB72F970FB6F894DEBF0FBECDBF8E879E
:102B80006F878E8518160CF046C08E858D310CF03F
:102B900042C08E85082E000C990B9C0121503109F2
:102BA0004BE0429FC001439F900D1124885B9E4FD4
:102BB0002BE0FC01DE01139601900D922A95E1F7BE
:102BC00081E09F85913009F080E08983888599852F
:102BD000FC0180818A83888599852A85422F50E06F
:102BE00021E030E002C0220F331F4A95E2F7322F76
:102BF00030952A81632F62232981222F30E04A8574
:102C0000442F50E002C0220F331F4A95E2F7262BD3
:102C1000FC01208301C000002F960FB6F894DEBFA0
:102C20000FBECDBFDF91CF910895CF93DF93CDB786
:102C3000DEB72D970FB6F894DEBF0FBECDBF8D87E0
:102C40008D85181684F58D858D316CF58D85082E52
:102C5000000C990B9C01215031094BE0429FC001AF
:102C6000439F900D1124885B9E4F2BE0FC01DE01F9
:102C7000129601900D922A95E1F78F819885FC01BB
:102C80008081882F90E02985222F30E002C0959521
:102C900087952A95E2F78170898381E09981913047
:102CA00021F080E002C0000000002D960FB6F894DD
:102CB000DEBF0FBECDBFDF91CF910895CF93DF93DD
:102CC000CDB7DEB760970FB6F894DEBF0FBECDBFAD
:102CD0008F87688B8F8518160CF05FC08F858D31BC
:102CE0000CF05BC08F85082E000C990B9C012150C5
:102CF00031094BE0429FC001439F900D1124885B36
:102D00009E4F2BE0FC01DE01149601900D922A9556
:102D1000E1F789859A85FC018081882F90E02B85D9
:102D2000222F30E002C0959587952A95E2F78170B1
:102D300089838981882391F58889813019F0888970
:102D4000882361F581E09889913009F080E08A83D9
:102D50008D819E81FC0180818B838D819E812B855D
:102D6000422F50E021E030E002C0220F331F4A958D
:102D7000E2F7322F30952B81632F62232A81222F95
:102D800030E04B85442F50E002C0220F331F4A959C
:102D9000E2F7262BFC01208301C0000060960FB6ED
:102DA000F894DEBF0FBECDBFDF91CF910895CF93D2
:102DB000DF931F92CDB7DEB7898300000F90DF91BC
:102DC000CF910895EF920F93CF93DF93CDB7DEB7F6
:102DD0002A970FB6F894DEBF0FBECDBF8B834C830E
:102DE0005D836E837F8328870987EA8680E492E487
:102DF000AFE0B0E02C813D814E815F81BC01CD010F
:102E00000E945C2FDA01C90101979A83898385ECBE
:102E100090E029813A81232F3327FC01208384EC21
:102E200090E02981FC01208381EC90E028E1FC0105
:102E3000208382EC90E02EE0FC01208300002A96A3
:102E40000FB6F894DEBF0FBECDBFDF91CF910F91CB
:102E5000EF900895CF93DF9300D01F92CDB7DEB7E8
:102E600089837B836A8300000F900F900F90DF911E
:102E7000CF910895CF93DF931F92CDB7DEB78983AB
:102E800000000F90DF91CF910895CF93DF9300D092
:102E9000CDB7DEB789836A83000080EC90E0FC0147
:102EA0008081882F90E080729927892BB1F386EC7E
:102EB00090E02A81FC01208300000F900F90DF91A9
:102EC000CF910895CF93DF931F92CDB7DEB789835B
:102ED00000000F90DF91CF910895CF93DF9300D042
:102EE00000D01F92CDB7DEB789837B836A835D8371
:102EF0004C8300000F900F900F900F900F90DF9178
:102F0000CF910895CF93DF9300D000D000D0CDB7FC
:102F1000DEB78A837C836B835E834D83198210C006
:102F20008981882F90E02B813C81820F931FFC01C7
:102F30008081682F8A810E94451789818F5F8983EC
:102F40008981282F30E08D819E812817390740F331
:102F5000000026960FB6F894DEBF0FBECDBFDF91FE
:102F6000CF9108950F931F93CF93DF93CDB7DEB723
:102F700029970FB6F894DEBF0FBECDBF89837B8340
:102F80006A835D834C830E831F8328873987000003
:102F900029960FB6F894DEBF0FBECDBFDF91CF915B
:102FA0001F910F9108950F931F93CF93DF93CDB788
:102FB000DEB729970FB6F894DEBF0FBECDBF898369
:102FC0007B836A835D834C830E831F8328873987C5
:102FD000000029960FB6F894DEBF0FBECDBFDF917B
:102FE000CF911F910F910895CF93DF931F92CDB78B
:102FF000DEB7898300000F90DF91CF910895AF92E3
:10300000BF92CF92DF92EF92FF920F931F93CF93D5
:10301000DF93CDB7DEB7A0903505B0903605C090F0
:103020003705D0903805E0903905F0903A050091C9
:103030003B0510913C052A2D3B2D4C2D5D2D6E2D11
:103040007F2D802F912FA1E00E949530A22EB32ECC
:10305000C42ED52EE62EF72E082F192FA092350557
:10306000B0923605C0923705D0923805E092390506
:10307000F0923A0500933B0510933C050000DF9168
:10308000CF911F910F91FF90EF90DF90CF90BF9065
:10309000AF900895EF92FF920F931F93CF93DF931A
:1030A00000D0CDB7DEB789836A838A81282F30E0CC
:1030B0008981882F90E0B9010E945E1F8A81682F64
:1030C00070E08981882F90E00F2EF8EEEF2EF02D22
:1030D0000F2EF3E0FF2EF02D00E010E020E030E0B6
:1030E00040E050E00E94A31F8A81282F30E08981B0
:1030F000882F90E04FEF57E1B9010E9402200000B5
:103100000F900F90DF91CF911F910F91FF90EF9053
:103110000895CF93DF93CDB7DEB70000DF91CF9155
:103120000895AF92BF92CF92DF92EF92FF920F93EA
:103130001F93CF93DF93CDB7DEB720913505309144
:1031400036054091370550913805609139057091E9
:103150003A0580913B0590913C05A22EB32EC42EDA
:10316000D52EE62EF72E082F192F2A2D3B2D4C2D6C
:103170005D2D6E2D7F2D802F912FDF91CF911F918F
:103180000F91FF90EF90DF90CF90BF90AF90089598
:103190006F927F928F929F92AF92BF92CF92DF9267
:1031A000EF92FF920F931F93CF93DF93CDB7DEB7CC
:1031B000C755D1090FB6F894DEBF0FBECDBFFE01D3
:1031C000E15BFF4F8083CE01805B9F4FFC0100835A
:1031D000FC011183FC012283FC013383FC01448345
:1031E000FC015583FC016683FC017783CE01815B82
:1031F0009F4FFC018081823008F0FCC2CE01815BD0
:103200009F4FFC018081882F90E09C01C901880FAD
:10321000991F9C01C901880F991F880F991F880F5A
:10322000991F821B930B84589D4F21E0FC01208342
:1032300028E2CE014396FC01322F11923A95E9F72C
:1032400024E1CE01CB96FC01322F11923A95E9F799
:103250008FEF9FEFAFE7BFE78BAF9CAFADAFBEAFD8
:10326000198228C18981882E912C8981882F90E02C
:10327000880F991F84559D4FFC0180819181CC015D
:10328000A0E0B0E0BC01CD010E940E286B017C01E2
:10329000FE01E05BFF4F20813181428153816481D7
:1032A0007581868197810E944B28DC01CB019C01AE
:1032B000AD01C701B6010E949029DC01CB019C0140
:1032C000AD0160E074E284E79BE40E942B27DC01FF
:1032D000CB0120E030E040E051E4BC01CD010E9490
:1032E0009029DC01CB0120E030E040E85FE3BC0145
:1032F000CD010E94B426DC01CB01BC01CD010E94AE
:10330000A227A22EB32EC42ED52EE62EF72E082FDE
:10331000192FC401880F991F880F991F880F991FB3
:103320009E012F5F3F4F820F931F4296FC01A082A8
:10333000FC01B182FC01C282FC01D382FC01E48267
:10334000FC01F582FC010683FC0117838981882F2B
:1033500090E0880F991F84559D4FFC0180819181D9
:10336000CC01A0E0B0E0BC01CD010E940E283B01E1
:103370004C018981882F90E0880F991F880F991F31
:10338000880F991F9E012F5F3F4F820F931F429618
:10339000FC01A080FC01B180FC01C280FC01D38053
:1033A000FC01E480FC01F580FC010681FC01178131
:1033B0002A2D3B2D4C2D5D2D6E2D7F2D802F912F95
:1033C0000E944B28DC01CB0120E030E040E85FE3C5
:1033D000BC01CD010E94B526DC01CB019C01AD01F1
:1033E000C401B3010E949029DC01CB019C01AD0115
:1033F00060E074E284E79BE40E942B27DC01CB01B0
:1034000020E030E040E051E4BC01CD010E94902971
:10341000DC01CB018D879E87AF87B88BFE01E05B17
:10342000FF4F208131814281538164817581868182
:1034300097810E944B28DC01CB019C01AD016D8579
:103440007E858F8598890E94B426DC01CB018A8312
:103450009B83AC83BD8320E030E0A9016A817B813E
:103460008C819D810E94212788234CF48A819B8135
:10347000AC81BD81B0588A839B83AC83BD83898135
:10348000882F90E0880F991F880F991F9E012F5F4A
:103490003F4F820F931F9C01265C3F4F8A819B8187
:1034A000AC81BD81F90180839183A283B38389813B
:1034B0008F5F89838981853008F4D4CE84E08E8340
:1034C0008E81882F90E0880F991F880F991F9E0189
:1034D0002F5F3F4F820F931FCA96FC01808191811D
:1034E000A281B3818F839887A987BA871B8668C01A
:1034F0008B85882F90E0880F991F880F991F880F60
:10350000991F9E012F5F3F4F820F931F4296FC0130
:10351000A080FC01B180FC01C280FC01D380FC01D1
:10352000E480FC01F580FC010681FC0117812A2D55
:103530003B2D4C2D5D2D6E2D7F2D802F912F2E3FFD
:10354000310541055105610571058105910509F0B8
:10355000A0F58B85882F90E0880F991F880F991F01
:103560009E012F5F3F4F820F931FCA96FC018081FF
:103570009181A281B3812F81388549855A85BC010B
:10358000CD010E9421271816C4F08B85882F90E06A
:10359000880F991F880F991F9E012F5F3F4F820F41
:1035A000931FCA96FC0180819181A281B3818F8390
:1035B0009887A987BA878B858E838B858F5F8B874A
:1035C0008B85853008F494CFCE01815B9F4FFC0141
:1035D0008081882F90E09C01C901880F991F9C0170
:1035E000C901880F991F880F991F880F991F821B87
:1035F000930B80589D4FFC0140815181CE01815B2E
:103600009F4FFC018081882F90E09C01C901880FA9
:10361000991F9C01C901880F991F880F991F880F56
:10362000991F821B930B80589D4FFC0180819181D3
:10363000FC018081877FFA018083CE01815B9F4FEF
:10364000FC018081882F90E09C01C901880F991F9F
:103650009C01C901880F991F880F991F880F991F16
:10366000821B930B82589D4FFC0180819181FC014C
:103670008081898BCE01815B9F4FFC018081882FE7
:1036800090E09C01C901880F991F9C01C901880F16
:10369000991F880F991F880F991F821B930B8258BF
:1036A0009D4FFC0180819181298922602E7FFC0140
:1036B0002083CE01815B9F4FFC018081882F90E0A9
:1036C0009C01C901880F991F9C01C901880F991F8E
:1036D000880F991F880F991F821B930B8C579D4F42
:1036E000FC01A081B1818E81882F90E0880F991F05
:1036F000880F991F880F991F9E012F5F3F4F820FE0
:10370000931FFC0172962081318142815381648133
:10371000758186819781822F8C931C868E81882F5C
:1037200090E0880F991F84559D4FFC018081918105
:1037300080349105B9F08134910530F481309105E0
:1037400059F0089761F017C08115F1E09F0769F003
:103750008115944069F00FC081E08C870CC082E035
:103760008C8709C083E08C8706C084E08C8703C007
:1037700085E08C870000CE01815B9F4FFC0180813A
:10378000882F90E09C01C901880F991F9C01C901F5
:10379000880F991F880F991F880F991F821B930B01
:1037A00080589D4FFC0180819181FC0180818A8B32
:1037B000CE01815B9F4FFC018081882F90E09C01AE
:1037C000C901880F991F9C01C901880F991F880F93
:1037D000991F880F991F821B930B80589D4FFC01E6
:1037E000808191812A89322F387F2C85232BFC01FF
:1037F000208301C00000C95ADF4F0FB6F894DEBF26
:103800000FBECDBFDF91CF911F910F91FF90EF9031
:10381000DF90CF90BF90AF909F908F907F906F90F0
:1038200008956F927F928F929F92AF92BF92CF92A4
:10383000DF92EF92FF920F931F93CF93DF93CDB759
:10384000DEB7C655D1090FB6F894DEBF0FBECDBFA7
:10385000FE01E25BFF4F8083CE01815B9F4FDC0165
:103860000C93FC011183DC0112962C93FC01338331
:10387000DC0114964C93FC015583DC0116966C9385
:10388000FC017783CE01825B9F4FDC018C918230FB
:1038900008F0FDC2CE01825B9F4FFC018081282F82
:1038A00030E044E1429FC001439F900D11248856AF
:1038B0009D4F21E0DC012C9328E2CE014296FC01D1
:1038C000322F11923A95E9F724E1CE01CA96DC0134
:1038D000E22F1D92EA95E9F78FEF9FEFAFE7BFE781
:1038E0008AAF9BAFACAFBDAF19821BC18981882E57
:1038F000912C8981882F90E0880F991F84559D4FC6
:10390000DC018D919C91CC01A0E0B0E0BC01CD0127
:103910000E940E286B017C01FE01E15BFF4F2081BC
:1039200031814281538164817581868197810E94B2
:103930004B28DC01CB019C01AD01C701B6010E94FF
:103940009029DC01CB019C01AD0160E074E284E7C9
:103950009BE40E942B27DC01CB0120E030E040E813
:103960005FE3BC01CD010E94B426DC01CB01BC01A8
:10397000CD010E94A227A22EB32EC42ED52EE62E54
:10398000F72E082F192FC401880F991F880F991F30
:10399000880F991F9E012F5F3F4F820F931F419603
:1039A000FC01A082DC011196BC92FC01C282DC0108
:1039B0001396DC92FC01E482DC011596FC92FC017A
:1039C0000683DC0117961C938981882F90E0880F6D
:1039D000991F84559D4FFC0180819181CC01A0E00D
:1039E000B0E0BC01CD010E940E283B014C01898151
:1039F000882F90E0880F991F880F991F880F991FB3
:103A00009E012F5F3F4F820F931F4196DC01AC90C8
:103A1000FC01B180DC011296CC90FC01D380DC016A
:103A20001496EC90FC01F580DC0116960C91FC01DB
:103A300017812A2D3B2D4C2D5D2D6E2D7F2D802F36
:103A4000912F0E944B28DC01CB0120E030E040E8C0
:103A50005FE3BC01CD010E94B526DC01CB019C01D6
:103A6000AD01C401B3010E949029DC01CB019C018E
:103A7000AD0160E074E284E79BE40E942B27DC0147
:103A8000CB018D879E87AF87B88BFE01E15BFF4F2F
:103A90002081318142815381648175818681978142
:103AA0000E944B28DC01CB019C01AD016D857E8518
:103AB0008F8598890E94B426DC01CB018A839B8381
:103AC000AC83BD8320E030E0A9016A817B818C81D9
:103AD0009D810E94212788234CF48A819B81AC819F
:103AE000BD81B0588A839B83AC83BD838981882F35
:103AF00090E0880F991F880F991F9E012F5F3F4FFD
:103B0000820F931F9C01275C3F4F8A819B81AC8170
:103B1000BD81F90180839183A283B38389818F5F03
:103B200089838981853008F4E1CE84E08E838E819B
:103B3000882F90E0880F991F880F991F9E012F5F93
:103B40003F4F820F931FC996FC0180819181A28112
:103B5000B3818F839887A987BA871B866BC08B85B3
:103B6000882F90E0880F991F880F991F880F991F41
:103B70009E012F5F3F4F820F931F4196DC01AC9057
:103B8000FC01B180DC011296CC90FC01D380DC01F9
:103B90001496EC90FC01F580DC0116960C91FC016A
:103BA00017812A2D3B2D4C2D5D2D6E2D7F2D802FC5
:103BB000912F2E3F3F4F410551056105710581054C
:103BC000910509F0A0F58B85882F90E0880F991F4B
:103BD000880F991F9E012F5F3F4F820F931FC99639
:103BE000FC0180819181A281B3812F813885498533
:103BF0005A85BC01CD010E9421271816C4F08B857F
:103C0000882F90E0880F991F880F991F9E012F5FC2
:103C10003F4F820F931FC996FC0180819181A28141
:103C2000B3818F839887A987BA878B858E838B858D
:103C30008F5F8B878B85853008F491CFCE01825BB7
:103C40009F4FDC018C91282F30E044E1429FC0015E
:103C5000439F900D112484569D4FFC0180819181DA
:103C60009E01225B3F4FD9012C91422F50E064E12D
:103C7000649F9001659F300D112424563D4FF9013A
:103C800020813181D9012C91277E2860FC0120837D
:103C9000CE01825B9F4FDC018C91282F30E044E104
:103CA000429FC001439F900D112486569D4FFC01F9
:103CB000808191819E01225B3F4FD9012C91422F3F
:103CC00050E064E1649F9001659F300D11242656F9
:103CD0003D4FF90120813181D9012C912C7FFC01CC
:103CE0002083CE01825B9F4FDC018C91282F30E036
:103CF00044E1429FC001439F900D11248C559D4F7C
:103D0000DC01ED91FC918E81882F90E0880F991F46
:103D1000880F991F880F991F9E012F5F3F4F820FB9
:103D2000931F4196DC01AC90DC011196BC90DC0144
:103D30001296CC90DC011396DC90DC011496EC908A
:103D4000DC011596FC90DC0116960C91DC011796AF
:103D50001C912A2D3B2D4C2D5D2D6E2D7F2D802FFE
:103D6000912F08E00E947030A22EB32EC42ED52EC3
:103D7000E62EF72E082F192F8A2D8083CE01825B25
:103D80009F4FFC018081282F30E044E1429FC00119
:103D9000439F900D11248E559D4FFC01A081B18150
:103DA0008E81882F90E0880F991F880F991F880FA8
:103DB000991F9E012F5F3F4F820F931FFC01719649
:103DC000208131814281538164817581868197810F
:103DD000822F8C931C868E81882F90E0880F991FEC
:103DE00084559D4FDC018D919C9180349105B9F0F3
:103DF0008134910530F48130910559F0089761F0D4
:103E000017C08115B1E09B0769F08115944069F0F6
:103E10000FC081E08C870CC082E08C8709C083E0F2
:103E20008C8706C084E08C8703C085E08C87000007
:103E3000CE01825B9F4FDC018C91282F30E044E162
:103E4000429FC001439F900D112484569D4FFC0159
:103E500080819181DC018C91898BCE01825B9F4FA7
:103E6000FC018081282F30E044E1429FC001439F44
:103E7000900D112484569D4FDC018D919C912989D0
:103E8000322F387F2C85232BFC01208301C00000BA
:103E9000CA5ADF4F0FB6F894DEBF0FBECDBFDF9119
:103EA000CF911F910F91FF90EF90DF90CF90BF9037
:103EB000AF909F908F907F906F900895CF93DF93F6
:103EC00000D0CDB7DEB789836A838A818930B8F4A0
:103ED0008981882F90E09C01C901880F991F9C015E
:103EE000C901880F991F880F991F880F991F821B7E
:103EF000930B84589D4F21E0FC01208311C08A81DF
:103F0000813170F48981282F30E044E1429FC00163
:103F1000439F900D112488569D4F21E0FC01208382
:103F200000000F900F90DF91CF910895CF93DF9312
:103F300000D0CDB7DEB789836A8300000F900F9061
:103F4000DF91CF9108958F929F92AF92BF92CF92BF
:103F5000DF92EF92FF920F931F93CF93DF93CDB732
:103F6000DEB72A970FB6F894DEBF0FBECDBF8983A8
:103F70006A83EB82FC820D831E832F8338874987F7
:103F80005A878A818930A0F48B809C80AD80BE8066
:103F9000CF80D884E984FA84082D192D2A2D3B2D51
:103FA0004C2D5D2D6E2D7F2D89810E94C81816C065
:103FB0008A81813198F48B809C80AD80BE80CF80D7
:103FC000D884E984FA84082D192D2A2D3B2D4C2DF7
:103FD0005D2D6E2D7F2D89810E94111C00002A9677
:103FE0000FB6F894DEBF0FBECDBFDF91CF911F910A
:103FF0000F91FF90EF90DF90CF90BF90AF909F9088
:104000008F900895CF93DF9300D000D0CDB7DEB767
:1040100089836A835C834B838A81893008F04BC033
:104020008981882F90E09C01C901880F991F9C010C
:10403000C901880F991F880F991F880F991F821B2C
:10404000930B88579D4F2B813C81FC01318320834A
:104050008981882F90E09C01C901880F991F9C01DC
:10406000C901880F991F880F991F880F991F821BFC
:10407000930B8E579D4FFC01408151818981882F80
:1040800090E09C01C901880F991F9C01C901880F0C
:10409000991F880F991F880F991F821B930B8E57AA
:1040A0009D4FFC0180819181FC0180818260FA0139
:1040B0008083789435C08A81813190F58981282F59
:1040C00030E044E1429FC001439F900D112486558A
:1040D0009D4F2B813C81FC01318320838981282FD6
:1040E00030E044E1429FC001439F900D112480566F
:1040F0009D4FFC01808191812981422F50E064E134
:10410000649F9001659F300D112420563D4FF901A9
:1041100020813181F90120812260FC012083789483
:1041200000000F900F900F900F90DF91CF910895A6
:10413000CF93DF9300D000D0CDB7DEB78A836B83F7
:104140004C8319828A81882311F4198205C08A81DF
:104150008230E1F581E089838B818823D1F48981E4
:10416000882F90E09C01C901880F991F9C01C9010B
:10417000880F991F880F991F880F991F821B930B17
:104180008C579D4FFC01808191812C81FC01208303
:104190001EC08B818130D9F48981882F90E09C01E9
:1041A000C901880F991F9C01C901880F991F880FA9
:1041B000991F880F991F821B930B8A579D4FFC01F3
:1041C000808191812C81FC01208301C000000F902F
:1041D0000F900F900F90DF91CF910895CF93DF93C1
:1041E000CDB7DEB72A970FB6F894DEBF0FBECDBFAE
:1041F0008A878A858D310CF037C28A85082E000C9B
:10420000990B9C01215031094BE0429FC001439F13
:10421000900D1124805B9E4FFC0180818C838A85E8
:10422000082E000C990B9C01215031094BE0429F54
:10423000C001439F900D11248F5A9E4FFC01808135
:104240008D838C818F3F09F412C28D818F3F09F4D9
:104250000EC219821A821B828C81882321F08C81E4
:10426000823009F046C088E089838C81882311F46C
:104270001B8205C08C81823011F481E08B838B819D
:10428000882F90E09C01C901880F991F9C01C901EA
:10429000880F991F880F991F880F991F821B930BF6
:1042A00084589D4FFC0180818823E1F08B81882F09
:1042B00090E09C01C901880F991F9C01C901880FDA
:1042C000991F880F991F880F991F821B930B835882
:1042D0009D4FFC01908181E08927882319F081E0BE
:1042E00090E002C080E090E08A838A8181708A83B6
:1042F00030C08C81813009F0B9C180E189831B8293
:104300008B81282F30E044E1429FC001439F900DF4
:10431000112488569D4FFC0180818823A1F08B8158
:10432000282F30E044E1429FC001439F900D1124AB
:1043300087569D4FFC01908181E08927882319F0E1
:1043400081E090E002C080E090E08A838A81817001
:104350008A839A8181E08927882309F488C18C8126
:1043600069810E945E1F8981883009F06BC18B8151
:10437000882F90E09C01C901880F991F9C01C901F9
:10438000880F991F880F991F880F991F821B930B05
:1043900083589D4FFC01908181E08927882309F48F
:1043A000DDC08B81882F90E09C01C901880F991F87
:1043B0009C01C901880F991F880F991F880F991FA9
:1043C000821B930B83589D4F21E0FC0120838B813E
:1043D000882F90E09C01C901880F991F9C01C90199
:1043E000880F991F880F991F880F991F821B930BA5
:1043F00080589D4FFC01408151818B81882F90E036
:104400009C01C901880F991F9C01C901880F991F40
:10441000880F991F880F991F821B930B80589D4FFF
:10442000FC0180819181FC018081877FFA0180837A
:104430008B81882F90E09C01C901880F991F9C01F6
:10444000C901880F991F880F991F880F991F821B18
:10445000930B82589D4FFC0180819181FC018081EA
:104460008E838B81882F90E09C01C901880F991F52
:104470009C01C901880F991F880F991F880F991FE8
:10448000821B930B82589D4FFC01808191812E816C
:1044900021602D7FFC0120838B81882F90E09C017F
:1044A000C901880F991F9C01C901880F991F880FA6
:1044B000991F880F991F821B930B80589D4FFC01F9
:1044C000808191818F838B81882F90E09C01C9012D
:1044D000880F991F9C01C901880F991F880F991F88
:1044E000880F991F821B930B8C579D4FFC01808175
:1044F0009181FC0110828B81882F90E09C01C90181
:10450000880F991F9C01C901880F991F880F991F57
:10451000880F991F821B930B8A579D4FFC01808146
:104520009181FC0110828B81882F90E09C01C90150
:10453000880F991F9C01C901880F991F880F991F27
:10454000880F991F821B930B80589D4FFC0180811F
:1045500091812F81287F2160FC0120838D81882318
:10456000A9F58B81882F90E09C01C901880F991FC4
:104570009C01C901880F991F880F991F880F991FE7
:10458000821B930B82589D4FFC0180819181FC011D
:10459000808188878B81882F90E09C01C901880FDA
:1045A000991F9C01C901880F991F880F991F880FB7
:1045B000991F821B930B82589D4FFC018081918132
:1045C00028852F732068FC01208337C08D818130BE
:1045D000A1F58B81882F90E09C01C901880F991F5C
:1045E0009C01C901880F991F880F991F880F991F77
:1045F000821B930B82589D4FFC0180819181FC01AD
:10460000808189878B81882F90E09C01C901880F68
:10461000991F9C01C901880F991F880F991F880F46
:10462000991F821B930B82589D4FFC0180819181C1
:1046300029852F702062FC01208361E08A850E9419
:10464000B51515C08981803191F48B81282F30E018
:1046500044E1429FC001439F900D112487569D4F16
:1046600021E0FC01208303C0000001C000002A9665
:104670000FB6F894DEBF0FBECDBFDF91CF91089586
:10468000CF93DF931F92CDB7DEB7898300000F90E1
:10469000DF91CF910895CF93DF93CDB7DEB7289701
:1046A0000FB6F894DEBF0FBECDBF8C834D835E8303
:1046B0006F8378878C81082E000C990B9C01215008
:1046C00031094BE0429FC001439F900D1124805B54
:1046D0009E4FFC01808189838C81082E000C990BF0
:1046E0009C01215031094BE0429FC001439F900D36
:1046F00011248F5A9E4FFC0180818A831B828D81F9
:104700009E81AF81B8859C01AD0160E070E080E8DA
:104710009FE30E94A828DC01CB0120E030E0A90142
:10472000BC01CD010E948928DC01CB018D839E83D1
:10473000AF83B8878981882319F089818230D1F4C9
:1047400020E030E04FE753E46D817E818F819885D2
:104750000E949029DC01CB01BC01CD010E94D92728
:10476000DC01CB01282F9A818981422F692F0E9479
:10477000982004C08981813009F41B8200002896AA
:104780000FB6F894DEBF0FBECDBFDF91CF91089575
:104790000F931F93CF93DF93CDB7DEB729970FB653
:1047A000F894DEBF0FBECDBF89830A831B832C83A1
:1047B0003D834E835F8368877987000029960FB613
:1047C000F894DEBF0FBECDBFDF91CF911F910F9147
:1047D0000895CF93DF9300D000D01F92CDB7DEB7FE
:1047E00089834A835B836C837D8300000F900F90E5
:1047F0000F900F900F90DF91CF910895CF93DF939B
:1048000000D01F92CDB7DEB789837B836A83000017
:104810000F900F900F90DF91CF910895CF93DF937A
:1048200000D0CDB7DEB789836A8300000F900F9068
:10483000DF91CF910895CF93DF9300D0CDB7DEB74E
:1048400089836A830000BC01CD010F900F90DF9136
:10485000CF910895CF93DF9300D0CDB7DEB7898392
:104860006A830000BC01CD010F900F90DF91CF91C2
:104870000895CF93DF931F92CDB7DEB789838AE780
:1048800090E02AE730E0F90120812068FC012083D4
:1048900000000F90DF91CF910895CF93DF93CDB7B4
:1048A000DEB72E970FB6F894DEBF0FBECDBF8E8752
:1048B0008E85082E000C990B9C01215031094BE08C
:1048C000429FC001439F900D11248E5A9E4FFC01C0
:1048D0008081898389818F3F09F4AAC08AE790E0AB
:1048E0002AE730E0F9012081422F487F2981022EFA
:1048F000000C330B220F331F2A543D4FF901208146
:10490000242BFC0120839091C6028981981709F419
:1049100053C08AE790E02AE730E0F90120812F7741
:10492000FC0120838CE790E02981022E000C330BE0
:10493000220F331F29543D4FF9012081222F30E0EF
:104940000024369527950794369527950794322F9E
:10495000202D322F2981232BFC0120838AE790E030
:104960002AE730E0F90120812068FC0120838AE7F2
:1049700090E02AE730E0F90120812064FC012083E7
:1049800000008AE790E0FC018081829586958695FB
:104990008370882F90E081709927892B91F788E7A1
:1049A00090E0FC0180818C8789E790E0FC018081A8
:1049B0008D8789818093C6028AE790E02AE730E0FC
:1049C000F90120812064FC01208300008AE790E047
:1049D000FC0180818295869586958370882F90E072
:1049E00081709927892B91F788E790E0FC018081FD
:1049F0008A8389E790E0FC0180818B838B81882FFB
:104A000090E0382F22278A81882F90E0822B932BE9
:104A10009D838C83892F880F880B8E838F83888753
:104A200089878A878B878C819D81AE81BF8102C0F7
:104A300000000000BC01CD012E960FB6F894DEBF39
:104A40000FBECDBFDF91CF910895CF93DF9300D0FC
:104A5000CDB7DEB789836A838AE00F900F90DF912C
:104A6000CF910895CF93DF9300D000D0CDB7DEB7BC
:104A70008A836B834C838A81082E000C990B9C01DE
:104A8000215031094BE0429FC001439F900D1124FA
:104A90008E5A9E4FFC018081898389818F3F49F125
:104AA0008B818130D1F48C81882359F48981082E3F
:104AB000000C990B880F991F89549D4FFC0110829F
:104AC00019C08981082E000C990B880F991F8954F1
:104AD0009D4F21E0FC0120830DC08981082E000C30
:104AE000990B880F991F89549D4F23E0FC01208367
:104AF00001C000000F900F900F900F90DF91CF91A9
:104B00000895CF93DF9300D000D0CDB7DEB78A836E
:104B10007C836B838A81082E000C990B9C012150A9
:104B200031094BE0429FC001439F900D11248E5AE2
:104B30009E4FFC018081898389818F3F09F46DC07C
:104B40008B819C81039760F48981082E000C990B5E
:104B5000880F991F8A549D4F21E0FC0120835EC07D
:104B60008B819C81059760F48981082E000C990B3C
:104B7000880F991F8A549D4F22E0FC0120834EC06C
:104B80008B819C81099760F48981082E000C990B18
:104B9000880F991F8A549D4F23E0FC0120833EC05B
:104BA0008B819C81419760F48981082E000C990BC0
:104BB000880F991F8A549D4F24E0FC0120832EC04A
:104BC0008B819C81819760F48981082E000C990B60
:104BD000880F991F8A549D4F25E0FC0120831EC039
:104BE0008B819C818134910560F48981082E000CB1
:104BF000990B880F991F8A549D4F26E0FC01208352
:104C00000DC08981082E000C990B880F991F8A54BA
:104C10009D4F27E0FC01208301C000000F900F9002
:104C20000F900F90DF91CF910895CF93DF931F9254
:104C3000CDB7DEB789838FEF93E0A0E0B0E0BC0191
:104C4000CD010F90DF91CF910895CF93DF93CDB732
:104C5000DEB70000DF91CF910895CF93DF931F92CD
:104C6000CDB7DEB789838981882361F05F9A000020
:104C70000000000000000000000000005F9800003D
:104C8000000008C05F9A00005F980000000000006C
:104C90000000000000000F90DF91CF910895CF93A6
:104CA000DF9300D0CDB7DEB78A83198215C08A8121
:104CB000881F8827881F882F90E08170992721E01E
:104CC000892B09F420E0822F0E942D268A81880FEB
:104CD0008A8389818F5F89838981883040F30000CE
:104CE0000F900F90DF91CF910895CF93DF93CDB7C1
:104CF000DEB78AE290E02AE230E0F9012081206804
:104D0000FC0120838BE290E02BE230E0F90120816E
:104D10002068FC0120830000DF91CF910895CF939C
:104D2000DF9300D01F92CDB7DEB789836A834B83B0
:104D30008A810E944F2689810E944F268B810E9482
:104D40004F2600000F900F900F90DF91CF910895A4
:104D5000CF93DF93CDB7DEB785E28A95F1F70000F8
:104D60000000DF91CF9108955058BB27AA270E94D9
:104D7000CC260C943D290E94042938F00E940B296E
:104D800020F039F49F3F19F426F40C94F1280EF426
:104D9000E095E7FB0C94EB28E92F0E94622958F379
:104DA000BA17620773078407950720F079F4A6F510
:104DB0000C9484290EF4E0950B2EBA2FA02D0B0134
:104DC000B90190010C01CA01A0011124FF27591B50
:104DD00099F0593F50F4503E68F11A16F040A22F56
:104DE000232F342F4427585FF3CF469537952795C7
:104DF000A795F0405395C9F77EF41F16BA0B620BC6
:104E0000730B840BBAF09150A1F0FF0FBB1F661F0C
:104E1000771F881FC2F70EC0BA0F621F731F841F4F
:104E200048F4879577956795B795F7959E3F08F075
:104E3000B0CF9395880F08F09927EE0F9795879537
:104E400008950E94C72808F481E008950E9414295B
:104E5000E3950C944E290E943F270C943D290E9413
:104E60000B2958F00E94042940F029F45F3F29F0F3
:104E70000C94EB2851110C9485290C94F1280E9474
:104E8000622968F39923B1F3552391F3951B550BD0
:104E9000BB27AA2762177307840738F09F5F5F4F0D
:104EA000220F331F441FAA1FA9F335D00E2E3AF04C
:104EB000E0E832D091505040E695001CCAF72BD064
:104EC000FE2F29D0660F771F881FBB1F26173707B5
:104ED0004807AB07B0E809F0BB0B802DBF01FF27E7
:104EE00093585F4F3AF09E3F510578F00C94EB28B1
:104EF0000C9485295F3FE4F3983ED4F3869577952B
:104F00006795B795F7959F5FC9F7880F911D96959F
:104F1000879597F90895E1E0660F771F881FBB1FFB
:104F2000621773078407BA0720F0621B730B840BA8
:104F3000BA0BEE1F88F7E0950895BEE304D008F49D
:104F400090E80895BFE322273327A9010E946A2928
:104F500060F19F5748F1B91740F1BFE3B91B99279A
:104F6000B8503AF4660F771F881F991FB395D2F394
:104F700016C0B8504AF0232F342F452F562F672FD5
:104F8000782F8827B850BAF7B85F49F0869577959B
:104F900067955795479537952795BA95B9F716F4BC
:104FA0000E94F42888940895889460E070E0CB0112
:104FB00008950E946A2988F09F5798F0B92F992781
:104FC000B751B0F0E1F0660F771F881F991F1AF0F4
:104FD000BA95C9F714C0B13091F00E948429B1E0AC
:104FE00008950C948429672F782F8827B85F39F0AB
:104FF000B93FCCF3869577956795B395D9F73EF48D
:1050000090958095709561957F4F8F4F9F4F089534
:1050100097FB16F40E94F4280C944C28E89409C0DD
:1050200097FB3EF490958095709561957F4F8F4FDB
:105030009F4F9923A9F0F92F96E9BB279395F695F1
:10504000879577956795B795F111F8CFFAF4BB0F6F
:1050500011F460FF1BC06F5F7F4F8F4F9F4F16C0D3
:10506000882311F096E911C0772321F09EE8872F5D
:10507000762F05C0662371F096E8862F70E060E019
:105080002AF09A95660F771F881FDAF7880F969592
:10509000879597F90895E894F92F96EBFF2381F00F
:1050A000121613061406440B9395F695879577957B
:1050B000679557954040FF23B9F71BC0992708957E
:1050C000882351F49850D2F7872B762F652F542FD1
:1050D000432F322F20E0B1F3121613061406440BAF
:1050E00088233AF09A95440F551F661F771F881F33
:1050F000CAF755234AF4440F551F11F460FF04C04A
:105100006F5F7F4F8F4F9F4F880F9695879597F9C9
:105110000895990FBB0B550FAA0BE0E8FEEF16168A
:105120001706E807F90770F012161306E407F507EB
:1051300060F0BA173CF049F46217730784079507CB
:10514000A7951BF4B901CA01BA2FB6959795089592
:10515000990FBB0B550FAA0BE0E8FEEF16161706CA
:10516000E807F90770F012161306E407F50760F078
:10517000BA1754F031F42617370748075907A7958F
:105180001BF4B901CA01BA2FB69597950895990FE6
:105190000008550FAA0BE0E8FEEF16161706E80701
:1051A000F907C0F012161306E407F50798F0621B22
:1051B000730B840B950B39F40A2661F0232B242BF7
:1051C000252B21F408950A2609F4A140A6958FEF16
:1051D000811D811D089597F99F6780E870E060E068
:1051E00008959FEF80EC0895909580957095609557
:1051F00050954095309521953F4F4F4F5F4F6F4FE2
:105200007F4F8F4F9F4F089500240A94161617065C
:1052100018060906089500240A94121613061406A7
:10522000050608950C94F1280E946A29D8F3E894A1
:10523000E0E0BB279F57F0F02AED3FE049EC06C0C5
:10524000EE0FBB0F661F771F881F28F0B23A620768
:105250007307840728F0B25A620B730B840BE39533
:105260009A9572F7803830F49A95BB0F661F771FB6
:10527000881FD2F790480C94FF29092E0394000C44
:1052800011F4882352F0BB0F40F4BF2B11F460FFE0
:1052900004C06F5F7F4F8F4F9F4F0895EF93E0FFE4
:1052A00007C0A2EA2AED3FE049EC5FEB0E94CC2662
:1052B0000E943D290F90039401FC9058E8E6F0E02D
:1052C0000C94322A57FD9058440F551F59F05F3FF8
:1052D00071F04795880F97FB991F61F09F3F79F018
:1052E00087950895121613061406551FF2CF46959A
:1052F000F1DF08C0161617061806991FF1CF86951C
:105300007105610508940895E894BB2766277727FF
:10531000CB0197F908950E94C72808F48FEF0895EC
:105320000E94A3290C943D290E94042938F00E9470
:105330000B2920F0952311F00C94EB280C94F12804
:1053400011240C9485290E94622970F3959FC1F362
:10535000950F50E0551F629FF001729FBB27F00D23
:10536000B11D639FAA27F00DB11DAA1F649F662778
:10537000B00DA11D661F829F2227B00DA11D621FC7
:10538000739FB00DA11D621F839FA00D611D221F81
:10539000749F3327A00D611D231F849F600D211D65
:1053A000822F762F6A2F11249F5750409AF0F1F0E8
:1053B00088234AF0EE0FFF1FBB1F661F771F881F51
:1053C00091505040A9F79E3F510580F00C94EB2876
:1053D0000C9485295F3FE4F3983ED4F38695779546
:1053E0006795B795F795E7959F5FC1F7FE2B880FF7
:1053F000911D9695879597F908959F3F31F09150AB
:1054000020F4879577956795B795880F911D9695A8
:10541000879597F90895DF93CF931F930F93FF928A
:10542000EF92DF927B018C01689406C0DA2EEF01C7
:105430000E94A329FE01E894A591259135914591FB
:105440005591A6F3EF010E94CC26FE019701A80119
:10545000DA9469F7DF90EF90FF900F911F91CF9151
:10546000DF9108959F938F937F936F93FF93EF93B3
:105470009B01AC010E949029EF91FF910E940B2AA1
:105480002F913F914F915F910C949029CF93DF938F
:10549000CDB7DEB70000DF91CF910895CF93DF93B2
:1054A00000D0CDB7DEB79A83898389819A819093A2
:1054B000C8028093C7020000BC01CD010F900F907D
:1054C000DF91CF910895CF93DF9300D0CDB7DEB7B2
:1054D0009A83898389819A819093CA028093C902B1
:1054E0000000BC01CD010F900F90DF91CF91089586
:1054F000CF93DF9300D0CDB7DEB79A8389838981BC
:105500009A819093CC028093CB0200000F900F9071
:10551000DF91CF910895CF93DF9300D0CDB7DEB761
:105520009A83898389819A819093CE028093CD0258
:1055300000000F900F90DF91CF910895CF93DF93EC
:1055400000D0CDB7DEB79A83898389819A81909301
:10555000D0028093CF0200000F900F90DF91CF9187
:105560000895CF93DF9300D0CDB7DEB79A838983B8
:1055700089819A819093D2028093D10200000F908A
:105580000F90DF91CF910895CF93DF9300D0CDB7E7
:10559000DEB79A83898389819A819093D40280931C
:1055A000D30200000F900F90DF91CF910895CF9319
:1055B000DF9300D0CDB7DEB79A83898389819A8142
:1055C0009093D6028093D50200000F900F90DF9148
:1055D000CF910895CF93DF931F92CDB7DEB7898324
:1055E0002091CB023091CC028981F901099500000C
:1055F0000F90DF91CF910895CF93DF931F92CDB796
:10560000DEB789832091CD023091CE028981F901E4
:105610000995DC01CB01BC01CD010F90DF91CF9149
:105620000895CF93DF9300D0CDB7DEB789836A8327
:105630002091CF023091D0026A818981F9010995C8
:105640000F900F90DF91CF910895CF93DF9300D00B
:105650001F92CDB7DEB789836A834B832091D10235
:105660003091D2024B816A818981F901099500004C
:105670000F900F900F90DF91CF910895CF93DF930C
:1056800000D01F92CDB7DEB789837B836A832091D8
:10569000D3023091D4028A819B81BC018981F901B6
:1056A000099500000F900F900F90DF91CF91089512
:1056B000CF93DF9300D000D01F92CDB7DEB78D839C
:1056C0002091D5023091D6028D81F9010995DC0136
:1056D000CB0189839A83AB83BC8389819A81AB8117
:1056E000BC81BC01CD010F900F900F900F900F90D7
:1056F000DF91CF910895CF93DF93CDB7DEB7000050
:10570000DF91CF910895CF93DF9300D0CDB7DEB76F
:105710009A83898389819A819093D8028093D70252
:1057200000000F900F90DF91CF910895CF93DF93FA
:1057300000D0CDB7DEB79A83898389819A8190930F
:10574000DA028093D90200000F900F90DF91CF9181
:105750000895CF93DF9300D0CDB7DEB79A838983C6
:1057600089819A819093DC028093DB0200000F9084
:105770000F90DF91CF910895CF93DF9300D0CDB7F5
:10578000DEB79A83898389819A819093DE02809320
:10579000DD0200000F900F90DF91CF910895CF931D
:1057A000DF9300D0CDB7DEB79A83898389819A8150
:1057B0009093E0028093DF0200000F900F90DF9142
:1057C000CF910895CF93DF9300D0CDB7DEB79A8302
:1057D000898389819A819093E2028093E10200009B
:1057E0000F900F90DF91CF910895CF93DF9300D06A
:1057F000CDB7DEB789836A832091D7023091D80272
:105800006A818981F901099500000F900F90DF915D
:10581000CF910895CF93DF931F92CDB7DEB78983E1
:105820002091D9023091DA028981F90109950F900E
:10583000DF91CF910895CF93DF9300D0CDB7DEB73E
:1058400089836A832091DB023091DC026A8189813D
:10585000F901099500000F900F90DF91CF91089505
:10586000CF93DF9300D0CDB7DEB789836A832091D1
:10587000DF023091E0026A818981F9010995000017
:105880000F900F90DF91CF910895CF93DF93CDB715
:10589000DEB70000DF91CF910895CF93DF9300D062
:1058A000CDB7DEB79A83898389819A819093E40288
:1058B0008093E30200000F900F90DF91CF91089545
:1058C000CF93DF9300D0CDB7DEB79A8389838981E8
:1058D0009A819093E6028093E50200000F900F906A
:1058E000DF91CF910895CF93DF9300D0CDB7DEB78E
:1058F0009A83898389819A819093E8028093E70251
:1059000000000F900F90DF91CF910895CF93DF9318
:1059100000D0CDB7DEB79A83898389819A8190932D
:10592000EA028093E90200000F900F90DF91CF917F
:105930000895CF93DF9300D0CDB7DEB79A838983E4
:1059400089819A819093EC028093EB0200000F9082
:105950000F90DF91CF910895CF93DF9300D0CDB713
:10596000DEB79A83898389819A819093EE0280932E
:10597000ED0200000F900F90DF91CF910895CF932B
:10598000DF9300D0CDB7DEB79A83898389819A816E
:105990009093F0028093EF0200000F900F90DF9140
:1059A000CF910895CF93DF931F92CDB7DEB7898350
:1059B0002091E3023091E4028981F9010995000008
:1059C0000F90DF91CF910895CF93DF9300D000D057
:1059D0001F92CDB7DEB789834A835B836C837D8357
:1059E0002091E7023091E8028A819B81AC81BD81E0
:1059F000AC01BD018981F901099500000F900F905C
:105A00000F900F900F90DF91CF910895CF93DF9378
:105A1000CDB7DEB70000DF91CF910895CF93DF932C
:105A200000D0CDB7DEB79A83898389819A8190931C
:105A3000F2028093F10200000F900F90DF91CF915E
:105A40000895CF93DF9300D0CDB7DEB79A838983D3
:105A500089819A819093F4028093F30200000F9061
:105A60000F90DF91CF910895CF93DF9300D0CDB702
:105A7000DEB79A83898389819A819093F602809315
:105A8000F50200000F900F90DF91CF910895CF9312
:105A9000DF9300D0CDB7DEB789836A832091F1020E
:105AA0003091F2026A818981F901099500000F9015
:105AB0000F90DF91CF910895AF92BF92CF92DF9276
:105AC000EF92FF920F931F93CF93DF93CDB7DEB783
:105AD00028970FB6F894DEBF0FBECDBF19821A8289
